:020000000328D3
:10000600831603138601013083128600F201F30181
:1000160080307306F00080307002031D142808300B
:10002600720203182E280230FB000430FC00BA309E
:10003600FD008312FD0B1C28FC0B1C28FB0B1C2847
:1000460000000608F000F00D701070088600F20A35
:100056000319F30A0B28F201F30180307306F0004E
:1000660080307002031D39280830720203185328A5
:100076000230FB000430FC00BA30FD008312FD0B99
:100086004128FC0B4128FB0B412800000608F00024
:10009600F00CF01370088600F20A0319F30A3028F0
:0400A60006285428AC
:02400E004A2F37
:00000001FF
