:0400000045EF0BF0CD
:1000080000C01EF001C01DF002C01CF003C01BF0B0
:1000180004C01AF005C019F008C018F009C017F09C
:100028000AC016F00BC015F0E1CF27F0E2CF28F098
:10003800E9CF25F0EACF26F0F3CF23F0F4CF24F070
:10004800F5CF22F0F8CF1FF0F7CF20F0F6CF21F050
:100058001EEC0AF022C0F5FF1FC0F8FF20C0F7FF12
:1000680021C0F6FF23C0F3FF24C0F4FF1EC000F038
:100078001DC001F01CC002F01BC003F01AC004F040
:1000880019C005F018C008F017C009F016C00AF02A
:1000980015C00BF025C0E9FF26C0EAFF27C0E1FF25
:0600A80028C0E2FF110078
:1000AE001E0E716E100E306E040E316E30C0E1FFFA
:1000BE0031C0E2FFE69E30C0E1FF31C0E2FFE69CB8
:1000CE00040E3024E16E000E3120E26EE68C180E26
:1000DE00346E040E356E34C0E1FF35C0E2FFE69E8D
:1000EE0034C0E1FF35C0E2FFE69C040E3424E16E1D
:1000FE00000E3520E26EE68C020E3024E16E000E0C
:10010E003120E26E3AC0E6FF3BC0E6FF010E30241E
:10011E00E16E000E3120E26E400EE66E30C0E9FF59
:10012E0031C0EAFFEECF00F030C0E1FF31C0E2FF98
:10013E00400E0014E66E30C0E9FF31C0EAFFEECF8C
:10014E0000F0880E001230C0E1FF31C0E2FF00C0A7
:10015E00E6FF30C03CF031C03DF0040E3018006EAA
:06016E0000C030F0120099
:100174000B6A0A6A096A00500402F4CF09F0F3CF4B
:1001840008F001500502F4CF0BF0F3CF0AF0005051
:100194000502F3500926F4500A22E86A0B220150A2
:1001A4000402F3500926F4500A22E86A0B2208C01C
:1001B40000F009C001F00AC002F00BC003F0120005
:1001C40004012251010A0FE120C401F01F0E01169F
:1001D4000150000A08E14F8E2151030A03E1010E88
:1001E400376E01D0376A2251000AD8A48BD020C4BC
:1001F40001F01F0E01160150020AD8A483D024C4B2
:1002040001F00F0E01160150000AD8B47BD04F8EB6
:1002140024BF16D024C403F00F0E031603C000F04D
:10022400000E016E0036009001362E0E0024E96E99
:10023400000E0120EA6EEECF04F0EECF05F015D0EB
:1002440024C403F00F0E031603C000F0000E016E69
:10025400003600900136320E0024E96E000E0120B3
:10026400EA6EEECF04F0EECF05F02151030A07E168
:1002740004C0E1FF05C0E2FF840EE66E43D024C44F
:1002840000F00F0E0016700E026E0F0E036E00507B
:100294000226D8B0032A02C0E9FF03C0EAFFFE0E1B
:1002A400EE14006EEECF01F0FF0E011602C0E1FF66
:1002B40003C0E2FF00C0E6FF01C0E6FF24AF11D097
:1002C40004C0E1FF05C0E2FFE66A040E0418006EF4
:1002D40000C004F004C0E1FF05C0E2FF400EE66E7A
:1002E40011D004C0E1FF05C0E2FF880EE66E040EE3
:1002F4000418006E00C004F004C0E1FF05C0E2FF72
:06030400C80EE66E1200B7
:10030A0020C401F01F0E01160150010A01E08DD030
:10031A0004012451000A01E088D02151060A3FE174
:10032A0034D04B50010A17E1360E006E180E016EDA
:10033A00000E026E120E0026000E0122022200C0DA
:10034A004CF001C04DF002C04EF0090E506E000E86
:10035A00516EC00E4F6E23D04B50010A12E1810E2E
:10036A00006E180E016E000E026E00C04CF001C045
:10037A004DF002C04EF0210E506E000E516EC00EAE
:10038A004F6E0DD0800E4F6E0AD004012351210A00
:10039A00C8E02351220AE0E02351230AF3E020C4F3
:1003AA0001F0600E0116050E006E005004E00132E5
:1003BA00019EFF0FFBD70150010A01E036D022D07F
:1003CA0034D033D0560E4C6E000E4D6E010E506E68
:1003DA00000E516EC10E4F6E28D0800E4F6E23C490
:1003EA0056F023D0530E4C6E000E4D6E010E506E19
:1003FA00000E516E810E4F6E18D0800E4F6E22C4C1
:10040A0053F013D004012151010ADAE02151090AFB
:10041A00D8E02151020AD6E021510A0ADEE0215130
:0C042A00030AE0E021510B0AE8E0120098
:100436000401286B296B42D04F8E28813750010A60
:10044600D8B4288350D04F8E4ED04F8E24BF16D0AE
:1004560024C403F00F0E031603C000F0000E016E55
:100466000036009001362E0E0024E96E000E0120A3
:10047600EA6EEECF04F0EECF05F015D024C403F0FB
:100486000F0E031603C000F0000E016E003600903A
:100496000136320E0024E96E000E0120EA6EEECF20
:1004A60004F0EECF05F004C0E9FF05C0EAFFEECF89
:1004B60001F001A402D0010E286F15D020C401F06E
:1004C6001F0E01160150000AB7E020C401F01F0EEE
:1004D60001160150010AB7E020C401F01F0E0116F3
:1004E6000150020AB2E04FAE07D0280E4C6E040E41
:0A04F6004D6E4F80020E506E120092
:100500004F8E716A4A6A22C44BF04B50000A03E1D5
:0E051000100E366E03D0200E366EC9DD1200BE
:10051E0004012051800AD8A471D0C00E4F6E64D051
:10052E00C20E006E180E016E000E026E00C04CF070
:10053E0001C04DF002C04EF0120E506E000E516E04
:10054E005DD0030E006E000E016E22C404F0000E8C
:10055E00056E09DE3E0E0024E96E000E0120EA6EE5
:10056E00EECF4CF0EECF4DF0EECF4EF0020E4C240F
:10057E00F66E000E4D20F76E000E4E20F86E09003E
:10058E00F5CF00F00900F5CF01F000C050F001C02A
:10059E0051F034D02251525C23E3030E006E000E54
:1005AE00016E22C404F0000E056EDDDD410E002446
:1005BE00E96E000E0120EA6EEECF4CF0EECF4DF05C
:1005CE00EECF4EF04CC0F6FF4DC0F7FF4EC0F8FF19
:1005DE000900F5CF00F000C050F0000E516E01D0B2
:1005EE004F6A0CD04F6A0AD02351010A99E0235169
:0E05FE00020AA7E02351030ACDE0F4D7120051
:10060C00000E515C02E1080E505C10E250C003F089
:10061C0051C004F03850000A03E1010E386E05D0C9
:10062C003850010A02E1020E386E04D0080E036E37
:10063C00000E046E32C0E1FF33C0E2FFE69232C01E
:10064C00E1FF33C0E2FFE69032C0E9FF33C0EAFFBE
:10065C00EECF00F032C0E1FF33C0E2FF04500010D7
:10066C00E66E010E3224E16E000E3320E26E03C002
:10067C00E6FF0350505C006E04505158016E00C0F0
:10068C0050F001C051F0280E5B6E040E5C6E4FB042
:10069C002FD0035004102BE04CC0F6FF4DC0F7FFD9
:1006AC004EC0F8FF0900F5CF00F05BC0E1FF5CC065
:1006BC00E2FF00C0E6FF5B4A5C2A010E4C24006E90
:1006CC00000E4D20016E000E4E20026E00C04CF04C
:1006DC0001C04DF002C04EF0010E035C006E000E26
:1006EC000458016E00C003F001C004F0D2D724D02E
:1006FC000350041021E04CC0E9FF4DC0EAFF5BC081
:10070C00E1FF5CC0E2FFEECFE6FF5B4A5C2A010E24
:10071C004C24006E000E4D20016E00C04CF001C048
:10072C004DF0010E035C006E000E0458016E00C00B
:0A073C0003F001C004F0DCD7120046
:10074600396A32C0E1FF33C0E2FFE66A040E3218AE
:10075600E16E33C0E2FF000EE21AE66A000169AFFD
:0607660001D0699F1200A2
:10076C00360E3E6E180E3F6E000E406ED90E416E68
:10077C00180E426E000E436E5F0E446E180E456EE0
:10078C00000E466EA20E476E180E486E000E496E95
:02079C00120049
:0E079E00160E6F6E9F0E6B6E3B0E696E120094
:0807AC00545201E0ACDD120023
:1007B4006D984FBE4AD0000169AF28D0020E396E41
:1007C400010E3224E16E000E3320E26EE66A32C07E
:1007D400E1FF33C0E2FFC80EE66E010E7025E16E44
:1007E400000E7121E26E080EE66E020E7025E16EB7
:1007F400000E7121E26E280EE66E040EE66E70C0E5
:10080400E1FF71C0E2FFC80EE66E1ED0010E702536
:10081400E16E000E7121E26E080EE66E020E702586
:10082400E16E000E7121E26E200EE66E040EE66E9D
:1008340070C0E1FF71C0E2FF8C0EE66E32C0E1FFD2
:1008440033C0E2FF840EE66E80D0000169BF7DD024
:10085400040120AF52D05150275D02E15050265D73
:1008640004E226C450F027C451F0CEDE010E396EE6
:10087400010E00017025E16E000E7121E26E080E7A
:10088400E66E020E7025E16E000E7121E26E200EFE
:10089400E66E040EE66E70C0E1FF71C0E2FF800EEA
:1008A400E66E556A010E6125E16E000E6221E26E6C
:1008B400080EE66E020E6125E16E000E6221E26E04
:1008C400200EE66E040EE66E61C0E1FF62C0E2FF38
:1008D400840EE66E010E556E020E3224E16E000E99
:1008E4003320E26E280EE66E040EE66E32C0E1FF9F
:1008F40033C0E2FFC80EE66E28D00001020E396E46
:10090400010E3224E16E000E3320E26EE66A32C03C
:10091400E1FF33C0E2FFC80EE66E010E7025E16E02
:10092400000E7121E26E080EE66E020E7025E16E75
:10093400000E7121E26E280EE66E040EE66E70C0A3
:0C094400E1FF71C0E2FFC80EE66E120079
:1009500020C401F0600E0116050E006E005004E088
:100960000132019EFF0FFBD70150000A01E058D071
:1009700034D04F8E080E366E53D0D1DD51D0C0DD4D
:100980004FD04B0E4C6E000E4D6E4F80010E506ED0
:100990004F8E46D050DD44D015DC42D04A0E006E5A
:1009A000000E016E24510026D8B0012A00C04CF080
:1009B00001C04DF04F80010E506E4F8E31D04F8EE2
:1009C0004A0EE16E000EE26E2451E126D8B0E22A12
:1009D00022C4E6FF25D024D023D004012151050AEA
:1009E000C8E02151060AC9E02151090AC8E0215195
:1009F000080AC7E02151000ACDE02151010ACCE0EC
:100A00002151030AC9E021510A0AC8E021510B0A09
:100A1000D6E02151070ADFE021510C0ADDE0DCD7E6
:020A20001200C2
:100A2200010E00016125E96E000E6221EA6EEECF31
:100A320000F000C002F0000E6B5D02E102506A5D40
:100A420003E26AC002F00AD002506A5D006E000E34
:100A52006B59016E00C06AF001C06BF0036A02506C
:100A6200035C1CE2280EE96E040EEA6E0350E926CE
:100A7200D8B0EA2AEECF00F067C0E1FF68C0E2FF1B
:100A820000C0E6FF010E6725006E000E6821016EB0
:100A920000C067F001C068F0032AE1D7000E006EC3
:100AA2006B51005C02E16A51000828E2010E7025D8
:100AB200E16E000E7121E26E080EE66E020E7025E6
:100AC200E16E000E7121E26E280EE66E040EE66EF5
:100AD20061C0E9FF62C0EAFFEECF00F000BC07D0C0
:100AE20070C0E1FF71C0E2FFC80EE66E06D070C0B2
:100AF200E1FF71C0E2FF880EE66E19D0010E70258B
:100B0200E16E000E7121E26E080EE66E020E702595
:100B1200E16E000E7121E26E200EE66E040EE66EAC
:100B220070C0E1FF71C0E2FF840EE66E699F1200A1
:0A0B32006984EF0E68166D82120050
:100B3C006D92699468A403D0FB0E6816FBD7120063
:100B4C0070A01CD061C0E9FF62C0EAFFEECF01F0DB
:100B5C000150800A12E132C0E9FF33C0EAFFEECF48
:100B6C0001F0000E000A02E1840E011806E161C0DA
:100B7C00E1FF62C0E2FF8C0EE66E7090DF0E68162D
:020B8C00120055
:100B8E00040E3218006E00C032F03650080A0AE128
:100B9E0022C46EFF6E50000803E2100E366E02D0B5
:100BAE00040E366E3950010A3AE1020E3224E16E1D
:100BBE00000E3320E26E280EE66E040EE66E1FDD8A
:100BCE003850020A07E132C0E1FF33C0E2FF840E63
:100BDE00E66E24D0040E3218006E00C032F032C021
:100BEE00E9FF33C0EAFFEECF00F000BC0CD0040EDC
:100BFE003218006E00C032F032C0E1FF33C0E2FFA7
:100C0E00C80EE66E0BD0040E3218006E00C032F025
:100C1E0032C0E1FF33C0E2FF880EE66E01D08CDDFC
:020C2E001200B2
:100C300032C0E9FF33C0EAFFEECF00F000AE05D0CE
:100C400032C0E1FF33C0E2FFE66A386A396A506AAF
:0C0C5000516A4F6A7DDEAADDADDD1200A6
:100C5C003950020A02E1DFDE1ED06FDD5550000A6A
:100C6C0019E1010E7025E16E000E7121E26E080E85
:100C7C00E66E020E7025E16E000E7121E26E200E02
:100C8C00E66E040EE66E70C0E1FF71C0E2FF8C0EE2
:080C9C00E66E01D0556A12005A
:100CA40063DD3C6A3D6A576A586A6A6A686A75DD38
:100CB4006D8C6E6A716A6D9C596A5A6A000E5A5C30
:100CC40002E1080E595C17E259C000F05AC001F065
:100CD400003600900136003600900136000E0024E4
:100CE400E16E040E0120E26EE66AE66AE66AE66AEE
:100CF400594A5A2AE3D7160E706E68A603D0F70E27
:100D04006816FBD74F6A0001696B6A6B6B6B6D9851
:0E0D1400080E326E040E336E4B6A366A120001
:040D2200A19A120080
:100D2600C20E006E180E016E000E026E0E0E00242C
:100D3600F66E000E0120F76E000E0220F86E090016
:100D4600F5CF03F003C004F00F0E0024F66E000E7C
:100D56000120F76E000E0220F86E0900F5CF01F0B3
:100D66000150035C12E2C20E006E180E016E000EF8
:100D7600026E0F0E0024F66E000E0120F76E000EB6
:100D86000220F86E0900F5CF04F0C20E006E180EB0
:100D9600016E000E026E100E0024F66E000E01208B
:100DA600F76E000E0220F86E0900F5CF01F0015033
:100DB600045C12E2C20E006E180E016E000E026E88
:100DC600100E0024F66E000E0120F76E000E0220B3
:0E0DD600F86E0900F5CF04F004C000F0120022
:0A0DE400D08EA28AA08AF28E1200BF
:100DEE00000E00017E1902E1000E7D1902E1016A7A
:100DFE000AD07DC0E9FF7EC0EAFFEECF00F0000E04
:0C0E0E0000BE010E016E01C000F01200D9
:100E1A000001806B816B826B020E7D25F66E000EDF
:100E2A007E21F76E000E7F21F86E0900F5CF05F0DE
:100E3A00030E7D25F66E000E7E21F76E000E7F21D1
:100E4A00F86E0900F5CF00F000C003F0000E046E42
:100E5A0003C001F0006A05500024066E000E01204E
:100E6A00076E7DC008F07EC009F07FC00AF0010E4F
:100E7A000824F66E000E0920F76E000E0A20F86E9E
:100E8A000900F5CF01F00150020A1BE1060E082401
:100E9A00F66E000E0920F76E000E0A20F86E0900A1
:100EAA00F5CF01F00150805D0CE2060E0824F66EC3
:100EBA00000E0920F76E000E0A20F86E0900F5CF21
:100ECA0080F0010E0824F66E000E0920F76E000E5F
:100EDA000A20F86E0900F5CF01F00150040A1BE15F
:100EEA00080E0824F66E000E0920F76E000E0A207E
:100EFA00F86E0900F5CF01F00150805D0CE2080E92
:100F0A000824F66E000E0920F76E000E0A20F86E0D
:100F1A000900F5CF80F008C0F6FF09C0F7FF0AC044
:100F2A00F8FF0900F5CF00F000508125016E000E90
:100F3A008221026E01C081F002C082F00750025C79
:100F4A0002E10650015C01E30FD008C0F6FF09C0B8
:100F5A00F7FF0AC0F8FF0900F5CF00F00050082695
:0E0F6A00000E09220A2283D780C000F0120078
:100F78003650000A09E16D6A696A0DDC6DB602D067
:100F88006D86FCD7010E366E3650010A08E16DBA3F
:100F980006D0686A696A69806988020E366E68A434
:100FA80005D069A403D0FB0E6816C4DD6DA202D07B
:100FB800B4DED5D068A018D069A016D06FDE040EB4
:100FC800366E200E0401026F040E036F080E016FC7
:100FD800000E0015006E00C000F48C0E0011006EAB
:100FE80000C000F4FE0E681668A805D069A803D0F2
:100FF8009CDDEF0E681668AC04D069AC02D0BF0E59
:10100800681668AA03D069AA01D09CDD68A202D03C
:1010180069B26A6A040E365C02E27FDEA0D069A675
:101028009DD000017E6B040E7E5DD8B097D068A677
:1010380091D06CCF5FF0F70E6816780E5F14016ED2
:101048000150000AD8A485D0FD0E5F14016E026A13
:10105800FF0E0216000E021802E1000E01186BE1E5
:101068007E0E5F14016E01C003F00332039E03C0BD
:1010780000F0000E016E0036009001360036009038
:101088000136000E0024026E040E0120036E02C019
:1010980061F003C062F002C070F003C071F0040E8A
:1010A8007019006E00C070F002C0E9FF03C0EAFFCB
:1010B800EECF00F000C001F03C0E01160132019E97
:1010C8000132019E01500D0A34E1020E6125E96EDC
:1010D800000E6221EA6EEECF01F0EECF02F0025070
:1010E800040A02E1280E011822E1020E6125E16ED0
:1010F800000E6221E26E200EE66E040EE66E7D6B37
:10110800080E7D5D14E2200EE16E040EE26E7D5144
:10111800E126D8B0E22A280EE96E040EEA6E7D5167
:10112800E926D8B0EA2AEECFE6FF7D2BE9D77CDDA9
:1011380001D090DD0DD0FD0E5F14016E026AFF0E26
:101148000216000E021802E1040E011801E11BDD6F
:1011580000D001D003D000017E2B65D7DEDD120060
:1011680000017E51000A12E07DC000F0000E016E01
:10117800003600900136320E0024E96E000E012080
:10118800EA6EEECF04F0EECF05F011D07DC000F08E
:10119800000E016E0036009001362E0E0024E96E16
:1011A800000E0120EA6EEECF04F0EECF05F0020E3D
:1011B8000424E16E000E0520E26E7FC0E6FF80C0C9
:1011C800E6FF010E0424E16E000E0520E26E81C0E8
:1011D800E6FF04C0E9FF05C0EAFFEECF00F004C057
:1011E800E1FF05C0E2FF400E0014E66E04C0E9FF0F
:1011F80005C0EAFFEECF00F0880E001204C0E1FF40
:1012080005C0E2FF00C0E6FF7E51000A1BE07DC07A
:1012180000F0000E016E003600900136320E0024F8
:10122800026E000E0120036E02C0E9FF03C0EAFF50
:10123800040EEE18006E02C0E1FF03C0E2FF00C01A
:10124800E6FF1AD07DC000F0000E016E0036009057
:1012580001362E0E0024026E000E0120036E02C01D
:10126800E9FF03C0EAFF040EEE18006E02C0E1FFBA
:1012780003C0E2FF00C0E6FF04C000F005C001F0B3
:02128800120052
:10128A003650000A0BE16D6A696ACFEC03F0A5DDFE
:0E129A006DB602D06D86FCD7010E366E1200C6
:0E12A800570E0D6E0D2EFED700000000120036
:1012B60000017C6B200E365C03E36DB201D002D0D8
:1012C600006A2DD03CC07DF03DC07EF08DDD005221
:1012D60025E13CC07AF03DC07BF0000E3D1802E1EE
:1012E600000E3C180AE0010E7A25E96E000E7B21FD
:1012F600EA6EEECF00F000C07CF079C07DF07E6B28
:1013060076C07FF077C080F078C081F02ADF00C019
:101316003CF001C03DF07CC000F001D0006A120034
:10132600200E365C03E36DB201D002D0006A4FD0C6
:1013360057C07DF058C07EF057DD005247E179C0B6
:101346007DF0010E7E6F76C07FF077C080F078C0AA
:1013560081F007DF00C057F001C058F0636B646B83
:10136600656B666B57C07DF058C07EF03DDD005260
:1013760017E0200E365C03E36DB201D002D0006A9E
:1013860026D0010E016E0150000A01E1F2DD0001D6
:10139600635164116511661102E0006A18D0E2D744
:1013A60057C07AF058C07BF0000E581802E1000EC4
:1013B60057180AE00001010E7A25E96E000E7B211E
:1013C600EA6EEECF00F003D0006A01D0006A120088
:1013D600A7DC00C076F0360E00017D6F180E7E6F1A
:1013E600000E7F6F17DD00C077F07651005C03E2D8
:0C13F60076C000F002D077C000F01200BA
:101402000900F5CFE6FF0006FBE10106F9E1120053
:10141200E1DF00C052F0010E546E72C03AF073C0A8
:101422003BF074C05DF075C05EF03BDC010E016EF6
:0A1432000150010A01E128DF120059
:10143C003650010A07E16DBA05D0686A698069887F
:10144C00020E366E68A406D069A404D0FB0E681692
:10145C009EEC05F06DA202D05EDCDBD068A018D04B
:10146C0069A016D019DC040E366E200E0401026F32
:10147C00040E036F080E016F000E0015006E00C005
:10148C0000F48C0E0011006E00C000F4FE0E681605
:10149C0068A806D069A804D099EC05F0EF0E681680
:1014AC0068AC04D069AC02D0BF0E681668AA04D030
:1014BC0069AA02D0A6EC05F068A202D069B26A6AE9
:1014CC00040E365C02E227DCA4D069A6A0D0000191
:1014DC00846B040E845DD8B09AD068A694D06CCF7F
:1014EC005FF0F70E6816780E5F14016E0150000A5B
:1014FC00D8A488D0FD0E5F14016E026AFF0E02168E
:10150C00000E021802E1000E01186DE17E0E5F1450
:10151C00016E01C003F00332039E03C000F0000E05
:10152C00016E003600900136003600900136000E38
:10153C000024026E040E0120036E02C061F003C091
:10154C0062F002C070F003C071F0040E7019006EEE
:10155C0000C070F002C0E9FF03C0EAFFEECF00F05C
:10156C0000C001F03C0E01160132019E0132019EB9
:10157C0001500D0A35E1020E6125E96E000E622163
:10158C00EA6EEECF01F0EECF02F00250040A02E157
:10159C00280E011822E1020E6125E16E000E622177
:1015AC00E26E200EE66E040EE66E836B080E835D13
:1015BC0014E2200EE16E040EE26E8351E126D8B0E7
:1015CC00E22A280EE96E040EEA6E8351E926D8B0A1
:1015DC00EA2AEECFE6FF832BE9D718EC06F002D00F
:1015EC002EEC06F00ED0FD0E5F14016E026AFF0E9B
:1015FC000216000E021802E1040E011802E1C7ECFB
:10160C0005F000D001D003D00001842B62D791ECFF
:04161C0006F01200C2
:101620003AC076F03BC077F0400E0001786F010EB3
:06163000796F41DE12009B
:10163600C26A2D1C006E0050C116070EC012C08E65
:1016460060C000F000360090003600900050C212D4
:10165600C28027DEC282C2A201D0FDD7C4CF01F06C
:0E166600006AC3500012000E0112C290120062
:1016740072C076F073C077F074C078F0010E000188
:06168400796F4FDE120039
:10168A006FEC0CF00D0EC16E070EB412000E0001C5
:10169A00726F050E736F400E746F050E756FB4DEB0
:1016AA00936AFF0E926EC10E94120C0EBD6E0C0E52
:1016BA00BA6EBE6ABB6A060ECA6EC80ECB6E200E22
:1016CA00D56E820ECD6E900EB16EF90E946EA3DFBA
:1016DA00005242E019D001C581FF32D0D59ED76AA7
:1016EA00D66A2ED0CD90CF6ACE6A2AD0D58E28D08F
:1016FA00CD8026D0D59E24D0CD9022D002C5BEFF63
:10170A001FD002C5BBFF1CD005010051010AE3E04E
:10171A000051020AE3E00051030AE4E00051040A1E
:10172A00E5E00051050AE4E00051060AE3E0005151
:10173A00070AE2E00051080AE1E00051090AE1E083
:10174A0000C540F501C541F5400E0001726F050E56
:10175A00736F400E746F89DF81CF41F5000E82BE30
:10176A00010E0501426F4237429142374291423798
:10177A00429142374291026A82BC022A02C000F0B8
:10178A000036009000360090003600900050422744
:10179A00026A82B0022A02C000F0003600900036C7
:1017AA00009000504227026A80BA022A02C000F062
:1017BA000036009000504227006A80B8002A005084
:1017CA0042270001606B32DF00C029F001C02AF015
:1017DA00FF0E00140501436F01C002F0036A030EF5
:1017EA000214446F010E0001606F20DF00C02BF06D
:1017FA0001C02CF0FF0E00140501456F01C002F074
:10180A00036A030E0214466FD6CF47F5D7CF48F5C1
:10181A00CECF49F5CFCF4AF5400E0001726F050EC3
:0C182A00736F400E746F21DF52D7FFD7A0
:1018DE0010EE29F0050E006E010E016ED40EF66E9E
:0E18EE00180EF76E000EF86E01EC0AF01200F4
:1018360009022900010100803209040000020300A8
:101846000000092101010001222100070581034052
:0918560000010705010340000137
:10185F0022034D0069006B0072006F0065006C0081
:10186F0065006B00740072006F006E0069006B0002
:02187F00610006
:101881000600FF0901A10119012940150026FF00E9
:10189100750895408102190129407508954091020A
:0118A100C086
:1018A2002003550053004200200048004900440034
:1018B20020004C0069006200720061007200790031
:1018C2001201000200000008BC2D0100000101020B
:0218D200000113
:0218D400000012
:0218D600000010
:0118D80030DF
:0418D90004030904F7
:020000040030CA
:0E000000210E3F1EFF0381FF0FC00FE00F40D7
:00000001FF
