:020000000328D3
:1000060083160313860101308312860001308600B1
:10001600F201F30180307306F00080307002031D98
:1000260016280730720203182F280230FB0004300E
:10003600FC00BA30FD00FD0B1E28FC0B1E28FB0B36
:100046001E2800000608F000F00D701070088600EB
:10005600F20A0319F30A0D28F201F3018030730640
:10006600F00080307002031D3A2807307202031830
:1000760053280230FB000430FC00BA30FD00FD0BB3
:100086004228FC0B4228FB0B422800000608F00021
:10009600F00CF01370088600F20A0319F30A3128EF
:0400A60009285428A9
:02400E004A2F37
:00000001FF
