:040000003EEF29F0B6
:1000080000C01EF001C01DF002C01CF003C01BF0B0
:1000180004C01AF005C019F008C018F009C017F09C
:100028000AC016F00BC015F0E1CF27F0E2CF28F098
:10003800E9CF25F0EACF26F0F3CF23F0F4CF24F070
:10004800F5CF22F0F8CF1FF0F7CF20F0F6CF21F050
:10005800B7EC27F022C0F5FF1FC0F8FF20C0F7FF5C
:1000680021C0F6FF23C0F3FF24C0F4FF1EC000F038
:100078001DC001F01CC002F01BC003F01AC004F040
:1000880019C005F018C008F017C009F016C00AF02A
:1000980015C00BF025C0E9FF26C0EAFF27C0E1FF25
:0600A80028C0E2FF110078
:1000AE001E0E716E100E3D6E040E3E6E3DC0E1FFD3
:1000BE003EC0E2FFE69E3DC0E1FF3EC0E2FFE69C91
:1000CE00040E3D24E16E000E3E20E26EE68C180E0C
:1000DE00416E040E426E41C0E1FF42C0E2FFE69E59
:1000EE0041C0E1FF42C0E2FFE69C040E4124E16EF6
:1000FE00000E4220E26EE68C020E3D24E16E000EF2
:10010E003E20E26E37C0E6FF38C0E6FF010E3D240A
:10011E00E16E000E3E20E26E400EE66E3DC0E9FF3F
:10012E003EC0EAFFEECF00F03DC0E1FF3EC0E2FF71
:10013E00400E0014E66E3DC0E9FF3EC0EAFFEECF72
:10014E0000F0880E00123DC0E1FF3EC0E2FF00C08D
:10015E00E6FF3DC039F03EC03AF0040E3D18006E89
:06016E0000C03DF012008C
:100174000B6A0A6A096A00500402F4CF09F0F3CF4B
:1001840008F001500502F4CF0BF0F3CF0AF0005051
:100194000502F3500926F4500A22E86A0B220150A2
:1001A4000402F3500926F4500A22E86A0B2208C01C
:1001B40000F009C001F00AC002F00BC003F0120005
:1001C4000B840BAEEDEF00F0010E036E026A016AC0
:0A01D400006A0A360232FF0E120024
:1001DE0004012251010A11E120C401F01F0E011683
:1001EE000150000A0AE14B8E2151030A04E1010E6F
:1001FE000001616F02D00001616B04012251000AFF
:10020E00D8A48BD020C401F01F0E01160150020A93
:10021E00D8A483D024C401F00F0E01160150000A99
:10022E00D8B47BD04B8E24BF16D024C403F00F0E4F
:10023E00031603C000F0000E016E0036009001366A
:10024E003B0E0024E96E000E0120EA6EEECF04F0A4
:10025E00EECF05F015D024C403F00F0E031603C025
:10026E0000F0000E016E0036009001363F0E0024A5
:10027E00E96E000E0120EA6EEECF04F0EECF05F02F
:10028E002151030A07E104C0E1FF05C0E2FF840E1D
:10029E00E66E43D024C400F00F0E0016700E026EF0
:1002AE000F0E036E00500226D8B0032A02C0E9FFDB
:1002BE0003C0EAFFFE0EEE14006EEECF01F0FF0E4D
:1002CE00011602C0E1FF03C0E2FF00C0E6FF01C05D
:1002DE00E6FF24AF11D004C0E1FF05C0E2FFE66ADD
:1002EE00040E0418006E00C004F004C0E1FF05C047
:1002FE00E2FF400EE66E11D004C0E1FF05C0E2FF42
:10030E00880EE66E040E0418006E00C004F004C0E1
:0C031E00E1FF05C0E2FFC80EE66E120011
:0E032A00026A016A006A086A036A000E120085
:080338000AAE029E000E120045
:100340000B820BAEAAEF01F0036802680168006837
:080350000A360232FF0E120012
:1003580020C401F01F0E01160150010A01E08DD0E2
:1003680004012451000A01E088D02151060A3FE126
:1003780034D05E50010A17E1E60E006E540E016E8D
:10038800000E026E120E0026000E0122022200C08C
:1003980048F001C049F002C04AF0090E4C6E000E48
:1003A8004D6EC00E4B6E23D05E50010A12E1800ED6
:1003B800006E550E016E000E026E00C048F001C0BE
:1003C80049F002C04AF0210E4C6E000E4D6EC00E70
:1003D8004B6E0DD0800E4B6E0AD004012351210ABA
:1003E800C8E02351220AE0E02351230AF3E020C4A5
:1003F80001F0600E0116050E006E005004E0013297
:10040800019EFF0FFBD70150010A01E036D022D030
:1004180034D033D0600E486E000E496E010E4C6E1B
:10042800000E4D6EC10E4B6E28D0800E4B6E23C44D
:1004380060F023D0660E486E000E496E010E4C6EB9
:10044800000E4D6E810E4B6E18D0800E4B6E22C47E
:1004580066F013D004012151010ADAE02151090A9A
:10046800D8E02151020AD6E021510A0ADEE02151E2
:0C047800030AE0E021510B0AE8E012004A
:100484000401286B296B47D004014B8E288100019D
:100494006151010A02E10401288352D04B8E50D0ED
:1004A40004014B8E24BF16D024C403F00F0E031690
:1004B40003C000F0000E016E0036009001363B0EC2
:1004C4000024E96E000E0120EA6EEECF04F0EECFB8
:1004D40005F015D024C403F00F0E031603C000F07A
:1004E400000E016E0036009001363F0E0024E96EC6
:1004F400000E0120EA6EEECF04F0EECF05F004C04A
:10050400E9FF05C0EAFFEECF01F001A403D0040126
:10051400010E286F15D020C401F01F0E01160150E2
:10052400000AB2E020C401F01F0E01160150010AB6
:10053400B5E020C401F01F0E01160150020AB0E01C
:100544004BAE07D0280E486E040E496E4B80020E47
:040554004C6E1200D7
:1005580004012051800AD8A473D0C00E4B6E65D018
:10056800E10E006E550E016E000E026E00C048F0DE
:1005780001C049F002C04AF0120E4C6E000E4D6EDA
:100588005FD0030E006E000E016E22C404F0000E50
:10059800056EECDD520E0024E96E000E0120EA6EB5
:1005A800EECF48F0EECF49F0EECF4AF0020E4824E5
:1005B800F66E000E4920F76E000E4A20F86E09000C
:1005C800F5CF00F00900F5CF01F000C04CF001C0F4
:1005D8004DF036D022510001735D23E3030E006E07
:1005E800000E016E22C404F0000E056EBFDD550E2C
:1005F8000024E96E000E0120EA6EEECF48F0EECF3F
:1006080049F0EECF4AF048C0F6FF49C0F7FF4AC0AC
:10061800F8FF0900F5CF00F000C04CF0000E4D6E59
:1006280001D04B6A0DD04B6A0BD004012351010A4B
:1006380097E02351020AA5E02351030ACBE0F3D740
:0206480012009E
:10064A00000E4D5C02E1080E4C5C10E24CC003F057
:10065A004DC004F04350000A03E1010E436E05D079
:10066A004350010A02E1020E436E04D0080E036EE3
:10067A00000E046E3FC0E1FF40C0E2FFE6923FC0B9
:10068A00E1FF40C0E2FFE6903FC0E9FF40C0EAFF59
:10069A00EECF00F03FC0E1FF40C0E2FF045000107F
:1006AA00E66E010E3F24E16E000E4020E26E03C0AA
:1006BA00E6FF03504C5C006E04504D58016E00C0BA
:1006CA004CF001C04DF0280E0001716F040E726FDC
:1006DA004BB02FD0035004102BE048C0F6FF49C09E
:1006EA00F7FF4AC0F8FF0900F5CF00F071C0E1FF3B
:1006FA0072C0E2FF00C0E6FF714B722B010E482464
:10070A00006E000E4920016E000E4A20026E00C0E3
:10071A0048F001C049F002C04AF0010E035C006EC5
:10072A00000E0458016E00C003F001C004F0D2D7D5
:10073A0024D00350041021E048C0E9FF49C0EAFF71
:10074A0071C0E1FF72C0E2FFEECFE6FF714B722B80
:10075A00010E4824006E000E4920016E00C048F0C8
:10076A0001C049F0010E035C006E000E0458016ED0
:0C077A0000C003F001C004F0DCD7120046
:100786004B8E716A00017D6B22C45EF05E50000ADA
:1007960003E1100E466E03D0200E466E85DC120075
:0807A6005F5201E0D6DD1200F4
:1007AE00E60E526E540E536E000E546E230E556EA0
:1007BE00560E566E000E576E5E0E586E550E596ED4
:1007CE00000E5A6EA10E5B6E550E5C6E000E5D6EC7
:0207DE00120007
:1007E0000CB032EF04F00CA2D8EF04F00E6A000E49
:1007F000026449EF04F0F00E0214D8A414EF04F0E0
:10080000023A01380F0B02260138F00B016E003856
:100810000F0B01260038F00B006E08380F0B002676
:100820000838F00B086E0E84D89002BE2DEF04F04D
:1008300008360036013602360E2A02BE2DEF04F0CD
:1008400008360036013602360E2A02BE2DEF04F0BD
:1008500008360036013602360E2A0E500364CEEFFB
:1008600004F0035E0BBC08AED3EF04F0D880800E1A
:1008700008640030000E002201220222D8A0D3EF2B
:1008800004F0023201320032034AD8EF04F0D3EF11
:1008900004F001C002F000C001F008C000F0086AD6
:1008A000000E0E86026480EF04F0F00E0214D8A44D
:1008B00068EF04F0023A01380F0B02260138F00B02
:1008C000016E00380F0B01260038F00B006E0E840D
:1008D000D89002BE2DEF04F00036013602360E2A03
:1008E00002BE2DEF04F00036013602360E2A02BE9B
:1008F0002DEF04F00036013602360E2A2DEF04F0FB
:1009000001C002F000C001F0006A000E0E960E88D1
:100910000264ADEF04F0F00E0214D8A498EF04F0D6
:10092000023A01380F0B02260138F00B016E0E84DB
:10093000D89002BE2DEF04F0013602360E2A02BE18
:100940002DEF04F0013602360E2A02BE2DEF04F020
:10095000013602360E2A2DEF04F001C002F0016AC2
:10096000000E0E860264DDEF04F0F00E0214D8A42F
:10097000BCEF04F0023A0E84D89002BE2DEF04F0D2
:1009800002360E2A02BE2DEF04F002360E2A02BEF7
:100990002DEF04F002360E2A2DEF04F0010E0C6E3E
:1009A00011DCE0EF04F0020E0C6EC6DCE0EF04F0A8
:1009B000040E0C6EC5DCE0EF04F0080E0C6EB5DC26
:0209C000120023
:1009C2006D984BBE4AD0000176AF28D0020E476E1A
:1009D200010E3F24E16E000E4020E26EE66A3FC047
:1009E200E1FF40C0E2FFC80EE66E010E6F25E16E28
:1009F200000E7021E26E080EE66E020E6F25E16EA9
:100A0200000E7021E26E280EE66E040EE66E6FC0D6
:100A1200E1FF70C0E2FFC80EE66E1ED0010E6F2528
:100A2200E16E000E7021E26E080EE66E020E6F2578
:100A3200E16E000E7021E26E200EE66E040EE66E8E
:100A42006FC0E1FF70C0E2FF8C0EE66E3FC0E1FFB7
:100A520040C0E2FF840EE66E80D0000176BF7DD0FA
:100A6200040120AF52D04D50275D02E14C50265D6B
:100A720004E226C44CF027C44DF0E6DD010E476EB9
:100A8200010E00016F25E16E000E7021E26E080E6C
:100A9200E66E020E6F25E16E000E7021E26E200EF0
:100AA200E66E040EE66E6FC0E1FF70C0E2FF800EDC
:100AB200E66E6E6B010E4424E16E000E4520E26E7E
:100AC200080EE66E020E4424E16E000E4520E26E30
:100AD200200EE66E040EE66E44C0E1FF45C0E2FF62
:100AE200840EE66E010E6E6F020E3F24E16E000E62
:100AF2004020E26E280EE66E040EE66E3FC0E1FF75
:100B020040C0E2FFC80EE66E28D00001020E476E1A
:100B1200010E3F24E16E000E4020E26EE66A3FC005
:100B2200E1FF40C0E2FFC80EE66E010E6F25E16EE6
:100B3200000E7021E26E080EE66E020E6F25E16E67
:100B4200000E7021E26E280EE66E040EE66E6FC095
:0C0B5200E1FF70C0E2FFC80EE66E12006A
:100B5E00476A3FC0E1FF40C0E2FFE66A040E3F185D
:100B6E00E16E40C0E2FF000EE21AE66A000176AFC7
:060B7E0001D0769F120079
:100B840020C401F0600E0116050E006E005004E052
:100B94000132019EFF0FFBD70150000A01E05AD039
:100BA40036D04B8E080E466E55D0D4DC53D0E9DDDA
:100BB40051D05E0E486E000E496E4B80010E4C6E95
:100BC4004B8E48D05DDC46D0EFEC00F043D07D0E78
:100BD400006E000E016E040124510026D8B0012AD3
:100BE40000C048F001C049F04B80010E4C6E4B8EA2
:100BF40031D04B8E7D0EE16E000EE26E2451E12663
:100C0400D8B0E22A22C4E6FF25D024D023D00401A0
:100C14002151050AC6E02151060AC7E02151090AFB
:100C2400C6E02151080AC5E02151000ACBE0215158
:100C3400010ACAE02151030AC7E021510A0AC7E0A8
:100C440021510B0AD6E02151070ADFE021510C0A99
:060C5400DDE0DCD7120018
:0E0C5A00160E6F6E9F0E6B6E3B0E696E1200D3
:100C6800010E4424E96E000E4520EA6EEECF00F036
:100C780000C002F0000E0001785D02E10250775DCD
:100C880003E277C002F00AD00250775D006E000ED2
:100C98007859016E00C077F001C078F0036A0250FD
:100CA800035C1CE2280EE96E040EEA6E0350E92686
:100CB800D8B0EA2AEECF00F074C0E1FF75C0E2FFB9
:100CC80000C0E6FF010E7425006E000E7521016E4E
:100CD80000C074F001C075F0032AE1D7000E006E61
:100CE8007851005C02E17751000828E2010E6F2577
:100CF800E16E000E7021E26E080EE66E020E6F25A0
:100D0800E16E000E7021E26E280EE66E040EE66EAD
:100D180044C0E9FF45C0EAFFEECF00F000BC07D0B1
:100D28006FC0E1FF70C0E2FFC80EE66E06D06FC06C
:100D3800E1FF70C0E2FF880EE66E19D0010E6F2544
:100D4800E16E000E7021E26E080EE66E020E6F254F
:100D5800E16E000E7021E26E200EE66E040EE66E65
:100D68006FC0E1FF70C0E2FF840EE66E769F12004E
:100D7800086A096A000E0762036441EF07F002502F
:100D880006180A6E075003267E0ED8A0D2EF06F08A
:100D9800035ED8B046EF07F0D6EF06F0035ED8A0A2
:100DA8004BEF07F0028E068E02C00EF001C00BF06A
:100DB80000C00DF000500402F4CF0CF00150050201
:100DC800F4CF00F0F3CF08F00402F3500C26F450EF
:100DD8000822000E00220D500502F3500C26F45094
:100DE8000822000E002202500402F3500826F45094
:100DF800002202500502016A000E0122F35000266B
:100E0800F45001220D500602F3500826F450002237
:100E1800026A000E012202220B500602F35000263D
:100E2800F4500122000E02220E500602F350012651
:100E3800F450022202BE29EF07F0083600360136C8
:100E480002360306D8B44BEF07F03CEF07F0D88022
:100E5800800E08640030000E002201220222D8A071
:100E68003CEF07F0023201320032034A46EF07F046
:100E78000AAE029E000E4EEF07F0010E95EC01F04F
:100E88004EEF07F0020EA0EC01F04EEF07F0040E53
:060E9800E2EC00F0120084
:040E9E00A19A120003
:100EA20085DC396A3A6A00016C6B6D6B6A6A686A42
:100EB200D3DE6D8C6E6A716A6D9C676B686B000E17
:100EC200685D02E1080E675D17E267C000F068C066
:100ED20001F0003600900136003600900136000E17
:100EE2000024E16E040E0120E26EE66AE66AE66A1A
:100EF200E66A674B682BE3D7160E706E68A603D0BE
:100F0200F70E6816FBD74B6A766B776B786B6D982A
:0E0F1200080E3F6E040E406E5E6A466A1200C4
:100F20006D92699468A403D0FB0E6816FBD712007B
:100F300070A01CD044C0E9FF45C0EAFFEECF01F02D
:100F40000150800A12E13FC0E9FF40C0EAFFEECF46
:100F500001F0000E000A02E1840E011806E144C00F
:100F6000E1FF45C0E2FF8C0EE66E7090DF0E681662
:020F700012006D
:100F7200040E3F18006E00C03FF04650080A0AE116
:100F820022C46EFF6E50000803E2100E466E02D0BD
:100F9200040E466E4750010A3BE1020E3F24E16E09
:100FA200000E4020E26E280EE66E040EE66E25EC80
:100FB20003F04350020A07E13FC0E1FF40C0E2FFF5
:100FC200840EE66E24D0040E3F18006E00C03FF07F
:100FD2003FC0E9FF40C0EAFFEECF00F000BC0CD0FA
:100FE200040E3F18006E00C03FF03FC0E1FF40C05A
:100FF200E2FFC80EE66E0BD0040E3F18006E00C072
:101002003FF03FC0E1FF40C0E2FF880EE66E01D034
:04101200A5DD120046
:0A1016006984EF0E68166D82120067
:101020000134083609360450085E0550D8A0053C46
:10103000095E003601360F0E0C6E01340836093693
:10104000045000A006D0085E0550D8A0053C095EFB
:1010500005D008260550D8B0053C092600360136D3
:101060000C2EEBD700B006D0045008260550D8B09F
:08107000053C092600001200F6
:101078004750020A02E1F4DD1ED06DDD6E51000A10
:1010880019E1010E6F25E16E000E7021E26E080E67
:10109800E66E020E6F25E16E000E7021E26E200EE4
:1010A800E66E040EE66E6FC0E1FF70C0E2FF8C0EC4
:0810B800E66E01D06E6B120020
:1010C000086A080E0C6E003408360450085ED8B06A
:0E10D00002D00826D89000360C2EF5D712005C
:1010DE00025006180E6E086A096A0B6A03500764FE
:1010EE0062EF09F006500A6E068E028E03500B6EEA
:1010FE000750036E000E0B64B2EF08F00B50075E44
:10110E00D8B453EF09F0070E076421EF09F0075E1C
:10111E0000C008F001C000F002C001F0026A074EE4
:10112E0053EF09F00764F6EF08F0075E00C008F011
:10113E0001C000F0016A074E53EF09F00764D4EFC7
:10114E0008F0075E00C008F0006A074E53EF09F082
:10115E000764BBEF08F00AC002F005C001F004C03E
:10116E0000F0086A7FEF0AF0030E0764C6EF08F07E
:10117E00075E08380F0B086E074E53EF09F0D89034
:10118E000832074E53EF09F0D8900832074E53EF4E
:10119E0009F0D890083253EF09F0030E0764E5EF1B
:1011AE0008F0075E08380F0B086E0038F00B0826A3
:1011BE0000380F0B006E074E53EF09F0D890003237
:1011CE000832074E53EF09F0D89000320832074E1E
:1011DE0053EF09F0D8900032083253EF09F0030EA6
:1011EE0007640DEF09F0075E08380F0B086E003824
:1011FE00F00B082600380F0B006E0138F00B00269E
:10120E0001380F0B016E074E53EF09F0D8900132E3
:10121E0000320832074E53EF09F0D89001320032F7
:10122E000832074E53EF09F0D890013200320832DF
:10123E0053EF09F0030E07643EEF09F0075E08381E
:10124E000F0B086E0038F00B082600380F0B006EDF
:10125E000138F00B002601380F0B016E0238F00B2F
:10126E00012602380F0B026E074E53EF09F0D8908D
:10127E000232013200320832074E53EF09F0D89095
:10128E000232013200320832074E53EF09F0D89085
:10129E000232013200320832096A000E0EAE47EFFA
:1012AE000AF0081E001E011E021E082A002201223C
:1012BE00022247EF0AF00750D8A468EF09F07FEF3B
:1012CE000AF0096A02C00AF0028E068E0750035C0D
:1012DE00076ED8B43AEF0AF0070E076408EF0AF06B
:1012EE00075E0450096E0550046E0650056E066AC0
:1012FE00074E3AEF0AF0070E0764DDEF09F0075EBE
:10130E000450096E0550046E056A074E3AEF0AF056
:10131E00070E0764BBEF09F0075E0450096E046AFE
:10132E00074E3AEF0AF0070E0764A2EF09F00AC063
:10133E0002F07FEF0AF0030E0764ADEF09F0075ECF
:10134E0009380F0B096E074E3AEF0AF0D8900932A2
:10135E00074E3AEF0AF0D8900932074E3AEF0AF0EC
:10136E00D89009323AEF0AF0030E0764CCEF09F079
:10137E00075E09380F0B096E0438F00B0926043886
:10138E000F0B046E074E3AEF0AF0D8900432093272
:10139E00074E3AEF0AF0D89004320932074E3AEF70
:1013AE000AF0D890043209323AEF0AF0030E0764BD
:1013BE00F4EF09F0075E09380F0B096E0438F00BD5
:1013CE00092604380F0B046E0538F00B0426053879
:1013DE000F0B056E074E3AEF0AF0D8900532043225
:1013EE000932074E3AEF0AF0D8900532043209322C
:1013FE00074E3AEF0AF0D8900532043209323AEF2E
:10140E000AF0030E076425EF0AF0075E09380F0B8A
:10141E00096E0438F00B092604380F0B046E0538DC
:10142E00F00B042605380F0B056E0638F00B05265B
:10143E0006380F0B066E074E3AEF0AF0D8900632BA
:10144E00053204320932074E3AEF0AF0D8900632CE
:10145E00053204320932074E3AEF0AF0D8900632BE
:10146E00053204320932086A000E0EAE47EF0AF05A
:10147E00091E041E051E061E092A04220522062226
:10148E00095008260450002205500122065002225F
:10149E000EBE5EEF0AF0D8A06DEF0AF002320132F6
:1014AE0000320832033E6DEF0AF079EF0AF0D8B041
:1014BE0073EF0AF0000E081E001E011E021E082AFF
:1014CE000022012202220A7E73EF0AF0010E0C6E38
:1014DE00F0EC03F081EF0AF0020E0C6EF0EC03F06C
:1014EE0081EF0AF0040E0C6EA0EC01F081EF0AF011
:0614FE00000E0C6E12004E
:101504000B800BAE8EEF0AF0026A0AAEFF0E026E7B
:0C151400016E006E0A360232FF0E12005B
:101520000D6A086A0050D8B4000C04180A6E0ABE8E
:101530000D1E0B6A04AE02D0041E042A00AE02D0B7
:10154000001E002A005004100A6E0ABE1FD004506C
:10155000085E003600340836045008260036060EB1
:101560000C6E00340836045000B0085E00A0082657
:1015700000360C2EF6D700A008260BB015D00DAE05
:10158000000C001E002A081E082A000C04AE09D018
:1015900000BE04D00050086E006AF1D7006A002A2D
:1015A000000C001E0B2AD3D7082A0450085CD8A4CC
:0E15B000E6D7086A002A00AEE2D7FF0C120050
:0815BE000B6A0B86FF0E120000
:1015C6003FC0E9FF40C0EAFFEECF00F000AE05D015
:1015D6003FC0E1FF40C0E2FFE66A436A476A4C6AE1
:1015E6004D6A4B6AC2EC05F0D3EC03F0E1EC04F073
:0215F6001200E1
:1015F8004650000A0AE16D6A696A2DEC06F06DB67C
:1016080002D06D86FCD7010E466E4650010A08E1ED
:101618006DBA06D0686A696A69806988020E466E82
:1016280068A405D069A403D0FB0E681675DC6DA20A
:1016380002D031DCD8D068A018D069A016D02DDC33
:10164800040E466E200E0401026F040E036F080E8E
:10165800016F000E0015006E00C000F48C0E001122
:10166800006E00C000F4FE0E681668A805D069A8D0
:1016780003D0CDDCEF0E681668AC04D069AC02D09C
:10168800BF0E681668AA03D069AA01D04DDC68A20B
:1016980002D069B26A6A040E465C03E24FEC07F0B6
:1016A800A2D069A69ED00001BC6B040EBC5DD8B068
:1016B80098D068A692D06CCF69F0F70E6816780EAD
:1016C8006915016E0150000AD8A486D0FD0E69156F
:1016D800016E026AFF0E0216000E021802E1000EE9
:1016E80001186BE17E0E6915016E01C003F003322B
:1016F800039E03C000F0000E016E00360090013614
:10170800003600900136000E0024026E040E0120FF
:10171800036E02C044F003C045F002C06FF003C07E
:1017280070F0040E6F19006E00C06FF002C0E9FF80
:1017380003C0EAFFEECF00F000C001F03C0E011636
:101748000132019E0132019E01500D0A34E1020E60
:101758004424E96E000E4520EA6EEECF01F0EECF8C
:1017680002F00250040A02E1280E011822E1020EDA
:101778004424E16E000E4520E26E200EE66E040E53
:10178800E66EBB6B080EBB5D14E2200EE16E040E24
:10179800E26EBB51E126D8B0E22A280EE96E040EAB
:1017A800EA6EBB51E926D8B0EA2AEECFE6FFBB2B9A
:1017B800E9D705DF01D05CDC0ED0FD0E6915016E9E
:1017C800026AFF0E0216000E021802E1040E01184A
:1017D80002E1B9EC07F000D001D003D00001BC2B26
:0817E80064D74FEC07F012007A
:1017F0000B6A0A6A096A086A0E6A033408360450DA
:10180000085E0550D8A0053C095E0650D8A0063CED
:101810000A5E0750D8A0073C0B5EE86AD8A0010E0C
:101820000E5E0336070E0C6E0334083609360A3690
:101830000B360E36045003A012D0085E0550D8A017
:10184000053C095E0650D8A0063C0A5E0750D8A0A9
:10185000073C0B5EE86AD8A0010E0E5E11D0082688
:101860000550D8B0053C09260650D8B0063C0A26DB
:101870000750D8B0073C0B26E86AD8B0010E0E26F8
:1018800003360C2ED1D70234083609360A360B3609
:101890000E36045003A012D0085E0550D8A0053CB7
:1018A000095E0650D8A0063C0A5E0750D8A0073C47
:1018B0000B5EE86AD8A0010E0E5E11D00826055016
:1018C000D8B0053C09260650D8B0063C0A26075079
:1018D000D8B0073C0B26E86AD8B0010E0E260236B7
:1018E000070E0C6E0234083609360A360B360E36F1
:1018F000045002A012D0085E0550D8A0053C095E35
:101900000650D8A0063C0A5E0750D8A0073C0B5EE4
:10191000E86AD8A0010E0E5E11D008260550D8B096
:10192000053C09260650D8B0063C0A260750D8B018
:10193000073C0B26E86AD8B0010E0E2602360C2EA4
:10194000D1D70134083609360A360B360E36045024
:1019500002A012D0085E0550D8A0053C095E0650D2
:10196000D8A0063C0A5E0750D8A0073C0B5EE86A88
:10197000D8A0010E0E5E11D008260550D8B0053C47
:1019800009260650D8B0063C0A260750D8B0073CB6
:101990000B26E86AD8B0010E0E260136070E0C6E33
:1019A0000134083609360A360B360E36045001A0CB
:1019B00012D0085E0550D8A0053C095E0650D8A09C
:1019C000063C0A5E0750D8A0073C0B5EE86AD8A028
:1019D000010E0E5E11D008260550D8B0053C092630
:1019E0000650D8B0063C0A260750D8B0073C0B2654
:1019F000E86AD8B0010E0E2601360C2ED1D700347D
:101A0000083609360A360B360E36045001A012D0BD
:101A1000085E0550D8A0053C095E0650D8A0063CDB
:101A20000A5E0750D8A0073C0B5EE86AD8A0010EFA
:101A30000E5E11D008260550D8B0053C0926065088
:101A4000D8B0063C0A260750D8B0073C0B26E86AF7
:101A5000D8B0010E0E260036070E0C6E0034083684
:101A600009360A360B360E36045000A012D0085E36
:101A70000550D8A0053C095E0650D8A0063C0A5E79
:101A80000750D8A0073C0B5EE86AD8A0010E0E5E96
:101A900011D008260550D8B0053C09260650D8B00C
:101AA000063C0A260750D8B0073C0B26E86AD8B097
:101AB000010E0E2600360C2ED1D700B00ED00450E9
:101AC00008260550D8B0053C09260650D8B0063C7B
:0C1AD0000A260750D8B0073C0B26120075
:101ADC000B6A0C6A086A0350D8B4F2EF0DF002C01E
:101AEC000AF0028E9E0E035E03AEE2EF0DF0036C65
:101AFC00080E035CD8A0AFEF0DF0036E083600C0E3
:101B0C0008F001C000F002C001F0026A080E035C8C
:101B1C00D8A0AFEF0DF0036E083600C008F001C07E
:101B2C0000F0016A080E035CD8A0AFEF0DF0036E55
:101B3C00083600C008F0006A080E035CD8A0AFEFAE
:101B4C000DF0036E0836086A0350D8A4D890BBEF8A
:101B5C000DF00350D8B4BBEF0DF0D8900232013227
:101B6C0000320832032EB3EF0DF00BBC08A0CCEF03
:101B7C000DF0D8A0CCEF0DF0082AD8B4002AD8B4B8
:101B8C00012AD8B4022A02BEF6EF0DF00AAEF2EF2B
:101B9C000DF0021E011E001E081E082AD8B4002AD1
:101BAC00D8B4012AD8B4022AF2EF0DF0026A016A05
:101BBC00006A086AF2EF0DF00B800BAEFCEF0DF033
:101BCC00026A0AAEFCEF0DF0026E016E006E086E3A
:101BDC000A360232FCEF0DF00C6A000EFDEF0DF030
:101BEC00010E0C6E000E88DCFDEF0DF0FF0E0250A6
:101BFC00036E0150026E0050016E0850006E120010
:101C0C0003500718D8A41AEF0EF002500618D8A4E7
:101C1C001AEF0EF001500518D8A41AEF0EF0005070
:0E1C2C000418D8B4D8841200D8941200120004
:081C3A00067E6FEC08F01200B9
:101C4200800E0001BB19006E800E000A005CD8B045
:101C52006AD1BB510008016E01C0BBF0800E0118B1
:101C6200006E800E6E0A005CD8A0BDD0640E046EB9
:101C7200BBC000F054DC120E0024056E000E00BE44
:101C8200FF0E066E000E062205C000F006C001F02F
:101C9200000E06BEFF0E026E036E00360090013685
:101CA20002360336003600900136023603364E0EF7
:101CB2000024F66E540E0120F76E000E0220F86E1C
:101CC2000900F5CFBCF00900F5CFBDF00900F5CF52
:101CD200BEF00900F5CFBFF0640E046EBBC000F089
:101CE2001EDC08C000F00A0E046E19DC090E002486
:101CF200056E000E00BEFF0E066E000E062205C027
:101D020000F006C001F0000E06BEFF0E026E036E6A
:101D12000036009001360236033600360090013656
:101D2200023603364E0E0024F66E540E0120F76E74
:101D3200000E0220F86E0900F5CF00F00900F5CF81
:101D420001F00900F5CF02F00900F5CF03F0BCC0A5
:101D520004F0BDC005F0BEC006F0BFC007F0BCEC89
:101D620006F000C0BCF001C0BDF002C0BEF003C06E
:101D7200BFF00A0E046EBBC000F090EC0AF008C07F
:101D820000F000C001F0000E00BEFF0E026E036EF6
:101D9200046E013601900236033604360136019094
:101DA2000236033604364E0E0124F66E540E02201D
:101DB200F76E000E0320F86E0900F5CF00F009005F
:101DC200F5CF01F00900F5CF02F00900F5CF03F0DD
:101DD200BCC004F0BDC005F0BEC006F0BFC007F035
:101DE200BCEC06F007D2800E0A0A006E800EBB1908
:101DF200005C71E20A0E046EBBC000F090EC0AF0C7
:101E0200090E0024056E000E00BEFF0E066E000EC7
:101E1200062205C000F006C001F0000E06BEFF0E4D
:101E2200026E036E0036009001360236033600362B
:101E320000900136023603364E0E0024F66E540E22
:101E42000120F76E000E0220F86E0900F5CFBCF0FB
:101E52000900F5CFBDF00900F5CFBEF00900F5CFBE
:101E6200BFF00A0E046EBBC000F090EC0AF008C08E
:101E720000F000C001F0000E00BEFF0E026E036E05
:101E8200046E0136019002360336043601360190A3
:101E92000236033604364E0E0124F66E540E02202C
:101EA200F76E000E0320F86E0900F5CF00F009006E
:101EB200F5CF01F00900F5CF02F00900F5CF03F0EC
:101EC200BCC004F0BDC005F0BEC006F0BFC007F044
:101ED200BCEC06F08FD1BBC000F0000EBBBFFF0E02
:101EE200016E026E036E0036009001360236033632
:101EF200003600900136023603364E0E0024F66E8E
:101F0200540E0120F76E000E0220F86E0900F5CF84
:101F120000F00900F5CF01F00900F5CF02F0090049
:101F2200F5CF03F067D1800EBB19006E800E6E0AEA
:101F3200005CD8A0C0D0640E046EBBC000F090EC70
:101F42000AF0120E0024056E000E00BEFF0E066E91
:101F5200000E062205C000F006C001F0000E06BE0B
:101F6200FF0E026E036E0036009001360236033613
:101F720000360090013602360336820E0024F66ED9
:101F8200540E0120F76E000E0220F86E0900F5CF04
:101F9200BCF00900F5CFBDF00900F5CFBEF0090095
:101FA200F5CFBFF0640E046EBBC000F090EC0AF0F7
:101FB20008C000F00A0E046E90EC0AF0090E00242C
:101FC200056E000E00BEFF0E066E000E062205C054
:101FD20000F006C001F0000E06BEFF0E026E036E98
:101FE2000036009001360236033600360090013684
:101FF20002360336820E0024F66E540E0120F76E6E
:10200200000E0220F86E0900F5CF00F00900F5CFAE
:1020120001F00900F5CF02F00900F5CF03F0BCC0D2
:1020220004F0BDC005F0BEC006F0BFC007F0BCECB6
:1020320006F000C0BCF001C0BDF002C0BEF003C09B
:10204200BFF00A0E046EBBC000F090EC0AF008C0AC
:1020520000F000C001F0000E00BEFF0E026E036E23
:10206200046E0136019002360336043601360190C1
:10207200023603360436820E0124F66E540E022016
:10208200F76E000E0320F86E0900F5CF00F009008C
:10209200F5CF01F00900F5CF02F00900F5CF03F00A
:1020A200BCC004F0BDC005F0BEC006F0BFC007F062
:1020B200BCEC06F09FD0800E0A0A006E800EBB199F
:1020C200005C71E20A0E046EBBC000F090EC0AF0F4
:1020D200090E0024056E000E00BEFF0E066E000EF5
:1020E200062205C000F006C001F0000E06BEFF0E7B
:1020F200026E036E00360090013602360336003659
:102102000090013602360336820E0024F66E540E1B
:102112000120F76E000E0220F86E0900F5CFBCF028
:102122000900F5CFBDF00900F5CFBEF00900F5CFEB
:10213200BFF00A0E046EBBC000F090EC0AF008C0BB
:1021420000F000C001F0000E00BEFF0E026E036E32
:10215200046E0136019002360336043601360190D0
:10216200023603360436820E0124F66E540E022025
:10217200F76E000E0320F86E0900F5CF00F009009B
:10218200F5CF01F00900F5CF02F00900F5CF03F019
:10219200BCC004F0BDC005F0BEC006F0BFC007F071
:1021A200BCEC06F027D0BBC000F0000EBBBFFF0E98
:1021B200016E026E036E003600900136023603365F
:1021C20000360090013602360336820E0024F66E87
:1021D200540E0120F76E000E0220F86E0900F5CFB2
:1021E20000F00900F5CF01F00900F5CF02F0090077
:0621F200F5CF03F012001E
:1021F8000050086E0150006E0250016E0350026ECE
:10220800036A0B6A0C6A9E0E036E0A6A020E0C6E53
:06221800F0EC03F01200DF
:10221E006E0E0001BB5DD8A0CAD0640E046EBBC0AA
:10222E0000F060EC08F0120E0024056E066A000E37
:10223E00062205C000F006C001F0000E06BEFF0E1D
:10224E00026E036E003600900136023603360036FB
:10225E0000900136023603364E0E0024F66E540EF2
:10226E000120F76E000E0220F86E0900F5CF00F087
:10227E000900F5CF01F00900F5CF02F00900F5CF06
:10228E0003F0000E046E000E056E000E066E7E0E3E
:10229E00076EBCEC06F000C0BCF001C0BDF002C081
:1022AE00BEF003C0BFF0640E046EBBC000F060EC65
:1022BE0008F008C000F00A0E046E60EC08F0090E7B
:1022CE000024056E066A000E062205C000F006C048
:1022DE0001F0000E06BEFF0E026E036E0036009079
:1022EE0001360236033600360090013602360336CA
:1022FE004E0E0024F66E540E0120F76E000E0220D4
:10230E00F86E0900F5CF00F00900F5CF01F00900D5
:10231E00F5CF02F00900F5CF03F0BCC004F0BDC04C
:10232E0005F0BEC006F0BFC007F0BCEC06F000C062
:10233E00BCF001C0BDF002C0BEF003C0BFF00A0E7B
:10234E00046EBBC000F060EC08F008C000F000C0E6
:10235E0001F0000E026E036E046E0136019002361D
:10236E0003360436013601900236033604364E0E1D
:10237E000124F66E540E0220F76E000E0320F86E46
:10238E000900F5CF00F00900F5CF01F00900F5CFF7
:10239E0002F00900F5CF03F0BCC004F0BDC005F09B
:1023AE00BEC006F0BFC007F0BCEC06F0B1D0BB510A
:1023BE000A08D8B07ED00A0E046EBBC000F060ECE6
:1023CE0008F0090E0024056E066A000E062205C0EE
:1023DE0000F006C001F0000E06BEFF0E026E036E88
:1023EE000036009001360236033600360090013674
:1023FE00023603364E0E0024F66E540E0120F76E92
:10240E00000E0220F86E0900F5CF00F00900F5CF9E
:10241E0001F00900F5CF02F00900F5CF03F0000E30
:10242E00046E000E056E000E066E7E0E076EBCEC80
:10243E0006F000C0BCF001C0BDF002C0BEF003C08B
:10244E00BFF00A0E046EBBC000F060EC08F008C0CE
:10245E0000F000C001F0000E026E036E046E013635
:10246E0001900236033604360136019002360336E9
:10247E0004364E0E0124F66E540E0220F76E000E38
:10248E000320F86E0900F5CF00F00900F5CF01F03A
:10249E000900F5CF02F00900F5CF03F0BCC004F03F
:1024AE00BDC005F0BEC006F0BFC007F0BCEC06F024
:1024BE002FD0BBC000F0000E016E026E036E003610
:1024CE000090013602360336003600900136023691
:1024DE0003364E0E0024F66E540E0120F76E000EDB
:1024EE000220F86E0900F5CF00F00900F5CF01F0DB
:1024FE000900F5CF02F00900F5CF03F0000E046ECF
:10250E00000E056E000E066E7E0E076EBCEC06F01B
:02251E001200A9
:102520000450000A12E10550000A0FE10650000AAB
:102530000CE10750000A09E1FF0E006EFF0E016E6C
:102540007F0E026EFF0E036EA8D0086A096A07505C
:10255000D8B43BEF13F00350D8B440EF13F002505F
:1025600006180A6E028E068E0E6A02C008F001C0BE
:102570000CF000C00DF004500D5E0550D8A0053CD5
:102580000C5E0650D8A0063C085E086A0C6A0D6A0C
:10259000D8A0D2EF12F0D8900232013200320832C5
:1025A000010E0E6E0750035ED8A0DFEF12F07E0E14
:1025B0000E240326D8B045EF13F0E5EF12F07E0E9F
:1025C0000E240326D8A04AEF13F0180E0B6E0D361A
:1025D0000C3608360036013602360E360450005EE0
:1025E0000550D8A0053C015E0650D8A0063C025E0E
:1025F00006340E120EA000EF13F00D800BEF13F057
:10260000045000260550D8B0053C01260650D8B02D
:10261000062802260D900B2EE7EF12F031EF13F093
:10262000D8900036013602360E360450005E055052
:10263000D8A0053C015E0650D8A0063C025E0634D8
:102640000E10010B0D26D8B00C2AD8B4082AD8A435
:1026500031EF13F008320C320D32032AD8B445EFB3
:1026600013F00AAE089E0850026E0C50016E0D5019
:10267000006E4DEF13F0010EDFEC0AF04DEF13F09A
:10268000020E95EC01F04DEF13F0040EA0EC01F0FA
:0C2690004DEF13F0080EE2EC00F0120019
:10269C000001BC51000A12E0BBC000F0000E016E3C
:1026AC000036009001363F0E0024E96E000E01202A
:1026BC00EA6EEECF04F0EECF05F011D0BBC000F007
:1026CC00000E016E0036009001363B0E0024E96EC0
:1026DC00000E0120EA6EEECF04F0EECF05F0020EF4
:1026EC000424E16E000E0520E26EBDC0E6FFBEC004
:1026FC00E6FF010E0424E16E000E0520E26EBFC061
:10270C00E6FF04C0E9FF05C0EAFFEECF00F004C00D
:10271C00E1FF05C0E2FF400E0014E66E04C0E9FFC5
:10272C0005C0EAFFEECF00F0880E001204C0E1FFF6
:10273C0005C0E2FF00C0E6FFBC51000A1BE0BBC0B5
:10274C0000F0000E016E0036009001363F0E0024A2
:10275C00026E000E0120036E02C0E9FF03C0EAFF07
:10276C00040EEE18006E02C0E1FF03C0E2FF00C0D1
:10277C00E6FF1AD0BBC000F0000E016E00360090D0
:10278C0001363B0E0024026E000E0120036E02C0C7
:10279C00E9FF03C0EAFF040EEE18006E02C0E1FF71
:1027AC0003C0E2FF00C0E6FF04C000F005C001F06A
:0227BC00120009
:1027BE00000E0001BC1902E1000EBB1902E1016A14
:1027CE000AD0BBC0E9FFBCC0EAFFEECF00F0000E9E
:0C27DE0000BE010E016E01C000F01200F0
:1027EA000001BB51390806E3300EBB5D03E3010E5D
:0827FA00006E01D0006A12001C
:102802000A6A0350D8A40A800750D8A40A820A5040
:10281200D8B464EF14F0030AD8B41DEF14F00AB070
:1028220018EF14F006AE62EF14F060EF14F002AE8F
:1028320060EF14F062EF14F00250800B0A6E029EF9
:102842000650800B069E0A18D8B42EEF14F00A50D8
:10285200D8B460EF14F062EF14F00750035CD8B400
:1028620038EF14F0D8A054EF14F05AEF14F00650D9
:10287200025CD8B442EF14F0D8A054EF14F05AEF2F
:1028820014F00550015CD8B44CEF14F0D8A054EF0A
:1028920014F05AEF14F00450005CD8B464EF14F052
:1028A200D8B05AEF14F00A52D8B462EF14F060EFC5
:1028B20014F00A52D8B460EF14F062EF14F0D8802A
:0E28C2001200D8901200D880D88412001200A4
:0A28D000D08EA28AA08AF28E1200B8
:1028DA000001BE6BBF6BC06B020EBB25F66E000E0D
:1028EA00BC21F76E000EBD21F86E0900F5CF05F088
:1028FA00030EBB25F66E000EBC21F76E000EBD213D
:10290A00F86E0900F5CF00F000C003F0000E046E67
:10291A0003C001F0006A05500024066E000E012073
:10292A00076EBBC008F0BCC009F0BDC00AF0010EBA
:10293A000824F66E000E0920F76E000E0A20F86EC3
:10294A000900F5CF01F00150020A1BE1060E082426
:10295A00F66E000E0920F76E000E0A20F86E0900C6
:10296A00F5CF01F00150BE5D0CE2060E0824F66EAA
:10297A00000E0920F76E000E0A20F86E0900F5CF46
:10298A00BEF0010E0824F66E000E0920F76E000E46
:10299A000A20F86E0900F5CF01F00150040A1BE184
:1029AA00080E0824F66E000E0920F76E000E0A20A3
:1029BA00F86E0900F5CF01F00150BE5D0CE2080E79
:1029CA000824F66E000E0920F76E000E0A20F86E33
:1029DA000900F5CFBEF008C0F6FF09C0F7FF0AC02C
:1029EA00F8FF0900F5CF00F00050BF25016E000E78
:1029FA00C021026E01C0BFF002C0C0F00750025CE5
:102A0A0002E10650015C01E30FD008C0F6FF09C0DD
:102A1A00F7FF0AC0F8FF0900F5CF00F000500826BA
:0E2A2A00000E09220A2283D7BEC000F012005F
:102A38000450000A08E10550000A05E1FF0E006E87
:102A48007F0E016E58D00D6A096A086A015000109D
:102A5800D8B4000C015005180A6E0ABE0D1E0B6A88
:102A680005AE05D0041E051E042AD8B4052A01AEF9
:102A780005D0001E011E002AD8B4012A01500510F5
:102A88000A6E0ABE10D010EC08F00BB020D00DAEC4
:102A9800000C001E011E002AD8B4012A081E091EB7
:102AA800082AD8B4092A000C05AE0DD001BE07D0FB
:102AB8000150096E0050086E016A006AE8D7016A81
:102AC800006A002A000C011E001E0B2ADDD7082A06
:102AD800D8B4092A0450085CD8A4D9D70550095C91
:102AE800D8A4D5D7096A086A002AD8B4012A01AE41
:082AF800CED70000FF0C120014
:102B0000E10E006E550E016E000E026E0E0E0024D8
:102B1000F66E000E0120F76E000E0220F86E09001E
:102B2000F5CF03F003C004F00F0E0024F66E000E84
:102B30000120F76E000E0220F86E0900F5CF01F0BB
:102B40000150035C12E2E10E006E550E016E000EA4
:102B5000026E0F0E0024F66E000E0120F76E000EBE
:102B60000220F86E0900F5CF04F0E10E006E550E5C
:102B7000016E000E026E100E0024F66E000E012093
:102B8000F76E000E0220F86E0900F5CF01F001503B
:102B9000045C12E2E10E006E550E016E000E026E34
:102BA000100E0024F66E000E0120F76E000E0220BB
:0E2BB000F86E0900F5CF04F004C000F012002A
:102BBE000B6A0C6A0A6A086A0350D8B467EF16F0FB
:102BCE00028E9E0E035E03BEF2EF15F0D8B4F2EF46
:102BDE0015F057EF16F0036C080E035CD8A024EF27
:102BEE0016F0036E083600C008F001C000F002C0F7
:102BFE0001F0026A080E035CD8A024EF16F0036EF3
:102C0E00083600C008F001C000F0016A080E035C2F
:102C1E00D8A024EF16F0036E083600C008F0006A44
:102C2E00080E035CD8A024EF16F0036E0836086A6F
:102C3E000350D8A4D89030EF16F00350D8B430EF2C
:102C4E0016F0D8900232013200320832032E28EFED
:102C5E0016F00BBC08A041EF16F0D8A041EF16F00D
:102C6E00082AD8B4002AD8B4012AD8B4022A02BE3F
:102C7E006BEF16F00AAE67EF16F0021E011E001E75
:102C8E00081E082AD8B4002AD8B4012AD8B4022AB9
:102C9E0067EF16F0026A016A006A086A67EF16F0BB
:102CAE000B800BAE71EF16F0026A0AAE71EF16F0E2
:102CBE00026E016E006E086E0A36023271EF16F069
:102CCE00000E0C6A72EF16F0010E0C6E82EC0AF01A
:102CDE0072EF16F0FF0E0250036E0150026E00509E
:082CEE00016E0850006E120097
:102CF60004DF00C093F0E60E0001BB6F540EBC6FFC
:102D0600000EBD6FE7DD00C094F09351005C03E256
:0C2D160093C000F002D094C000F0120046
:102D22004650000A0BE16D6A696A2DEC06F0CFDDB0
:0E2D32006DB602D06D86FCD7010E466E120003
:102D40000001996B200E465C03E36DB201D002D006
:102D5000006A2DD039C0BBF03AC0BCF030DD005263
:102D600025E139C097F03AC098F0000E3A1802E118
:102D7000000E39180AE0010E9725E96E000E982121
:102D8000EA6EEECF00F000C099F096C0BBF0BC6BCD
:102D900093C0BDF094C0BEF095C0BFF07FDC00C012
:102DA00039F001C03AF099C000F001D0006A120079
:0E2DB000570E0D6E0D2EFED700000000120013
:102DBE000C6A0E6A0250D8A4F8EF16F001C002F0A9
:102DCE0000C001F0006A0E860250D8A4F8EF16F08B
:102DDE0001C002F0016A0E960E880250D8B40AEFB6
:102DEE0017F00E50035ED8A4D8A010EF17F0D890AD
:102DFE0002BE16EF17F0003601360236032EFFEF35
:102E0E0016F010EF17F0010E0C6E95EC01F01AEFA4
:102E1E0017F0020E0C6EE2EC00F01AEF17F0040E33
:082E2E000C6E9CEC01F0120097
:102E3600200E465C03E36DB201D002D0006A4FD08B
:102E46006CC0BBF06DC0BCF0B7DC005247E196C069
:102E5600BBF0010EBC6F93C0BDF094C0BEF095C030
:102E6600BFF019DC00C06CF001C06DF0626B636BE3
:102E7600646B656B6CC0BBF06DC0BCF09DDC005232
:102E860018E0200E465C03E36DB201D002D0006A62
:102E960026D0010E016E0150000A02E1FCEC0AF098
:102EA6000001625163116411651102E0006A17D0D6
:102EB600E1D76CC097F06DC098F0000E6D1902E175
:102EC600000E6C1909E0010E9725E96E000E982197
:102ED600EA6EEECF00F003D0006A01D0006A12005D
:102EE6000001B36BB46BA76BA86B95C000F096C0DE
:102EF60001F097C002F0010E9527000E9623972346
:102F060000C0F6FF01C0F7FF02C0F8FF0900F5CFC9
:102F160000F000C0A4F00052D8B481EF27F0A4510D
:102F2600250A0BE093C0E1FF94C0E2FFA4C0E6FFD0
:102F3600934B942BB34BB42BD8D7A56BA66BA76B2F
:102F4600A86B23D0A787010E9527000E96239723FB
:102F560059D0A781010E9527000E9623972352D0AC
:102F6600A783010E9527000E962397234BD0A8879B
:102F7600010E9527000E9623972344D0A785010EB0
:102F86009527000E962397233DD095C0F6FF96C051
:102F9600F7FF97C0F8FF0900F5CF01F001502D0AA1
:102FA600D1E095C0F6FF96C0F7FF97C0F8FF09007D
:102FB600F5CF01F00150200ACCE095C0F6FF96C08F
:102FC600F7FF97C0F8FF0900F5CF01F001502B0A73
:102FD600C7E095C0F6FF96C0F7FF97C0F8FF090057
:102FE600F5CF01F00150230AC2E095C0F6FF96C066
:102FF600F7FF97C0F8FF0900F5CF01F00150300A3E
:10300600BDE001D09ED7A7A301D0A791A7A701D065
:10301600A79595C0F6FF96C0F7FF97C0F8FF090081
:10302600F5CF00F0000E016E00C0BBF0F5EC13F01A
:10303600005236E0A56BA66BA5C000F0A6C001F055
:103046000A0E046E000E056EBAEC00F095C0F6FF8F
:1030560096C0F7FF97C0F8FF0900F5CF02F00250BF
:103066000024A56F000E0120A66F300EA55F000E8E
:10307600A65B010E9527000E9623972395C0F6FFB3
:1030860096C0F7FF97C0F8FF0900F5CF00F0000ED5
:10309600016E00C0BBF0F5EC13F00052CDE133D069
:1030A60095C0F6FF96C0F7FF97C0F8FF0900F5CF69
:1030B60001F001502A0A27E198C0E9FF99C0EAFF0A
:1030C600EECF00F0EECF01F000C0E9FF01C0EAFF4D
:1030D600EECFA5F0EECFA6F098C0E9FF99C0EAFFC3
:1030E600020EEE24006E000EEE20016E98C0E1FF87
:1030F60099C0E2FF00C0E6FF01C0E6FF010E95277A
:10310600000E9623972395C0F6FF96C0F7FF97C04B
:10311600F8FF0900F5CF01F001502E0A70E1010E0B
:103126009527000E9623972395C0F6FF96C0F7FFC6
:1031360097C0F8FF0900F5CF01F001502A0A28E1EF
:1031460098C0E9FF99C0EAFFEECF00F0EECF01F09C
:1031560000C0E9FF01C0EAFFEECFA2F0EECFA3F078
:1031660098C0E9FF99C0EAFF020EEE24006E000E39
:10317600EE20016E98C0E1FF99C0E2FF00C0E6FFB5
:1031860001C0E6FF010E9527000E9623972336D041
:10319600A26BA36B95C0F6FF96C0F7FF97C0F8FF2A
:1031A6000900F5CF00F0000E016E00C0BBF0F5EC93
:1031B60013F0005223E0A2C000F0A3C001F00A0EF3
:1031C600046E000E056EBAEC00F095C0F6FF96C0D0
:1031D600F7FF97C0F8FF0900F5CF02F00250002470
:1031E600A26F000E0120A36F300EA25F000EA35B3C
:1031F600010E9527000E96239723CCD703D0A26BFA
:10320600A36BA88995C000F096C001F097C002F0A4
:10321600010E9527000E9623972300C0F6FF01C0E6
:10322600F7FF02C0F8FF0900F5CFA4F0F9D0B3C04C
:1032360000F0B4C001F085EF27F0A789E3D7A88591
:103246002ED1A78BA8812BD1A88329D1A78D27D1D1
:1032560026D1A78BA78F23D198C0E9FF99C0EAFF93
:10326600EECF00F0EECF01F000C0E9FF01C0EAFFAB
:10327600EECFAFF0EECFB0F098C0E9FF99C0EAFF0D
:10328600020EEE24006E000EEE20016E98C0E1FFE5
:1032960099C0E2FF00C0E6FF01C0E6FF000EB019CC
:1032A60002E1000EAF1904E1300EAF6F000EB06FF1
:1032B600B16BB26BB151AF25E96EB251B021EA6E76
:1032C600EE520BE0010EB125006E000EB221016E2A
:1032D60000C0B1F001C0B2F0EDD7A251A3110AE0CF
:1032E600B251A35D02E1B151A25D04E2A2C0B1F008
:1032F600A3C0B2F0A651B25D02E1A551B15D05E2EF
:10330600B151A55FB251A65B02D0A56BA66BA7B75C
:1033160016D0A5C000F0A6C001F0010EA55F000EF4
:10332600A65B005001100BE093C0E1FF94C0E2FFE2
:10333600200EE66E934B942BB34BB42BEAD7B1C059
:1033460002F0B2C003F0010EB15D006E000EB2597C
:10335600016E00C0B1F001C0B2F00250031019E0D6
:10336600AFC0E9FFB0C0EAFF93C0E1FF94C0E2FF3F
:10337600EECFE6FF934B942B010EAF25006E000EA9
:10338600B021016E00C0AFF001C0B0F0B34BB42B5A
:10339600D6D7A7A716D0A5C000F0A6C001F0010E8B
:1033A600A55F000EA65B005001100BE093C0E1FF85
:1033B60094C0E2FF200EE66E934B942BB34BB42BD6
:1033C600EAD793D598C0E9FF99C0EAFFEECF00F09F
:1033D600EECF01F000C0E9FF01C0EAFFEECFA4F096
:1033E60098C0E9FF99C0EAFF020EEE24006E000EB7
:1033F600EE20016E98C0E1FF99C0E2FF00C0E6FF33
:1034060001C0E6FFA40EAF6F000EB06F010EB16FE4
:10341600000EB26F62D7C00EA713000EA8133FD0DE
:10342600A451000AD8B403D7A4516C0AD8B405D75E
:10343600A4514C0AD8B401D7A451660AD8B4FFD611
:10344600A451450AD8B4FDD6A451650AD8B4FAD613
:10345600A451670AD8B4F8D6A4516F0AD8B4F6D6E0
:10346600A451640AD8B4F4D6A451690AD8B4F0D6E3
:10347600A451700AD8B4EDD6A451580AD8B4E9D6E6
:10348600A451780AD8B4E6D6A451730AD8B4E4D6BF
:10349600A451630A97E0A451750ABDE0B3D7000EA4
:1034A600A715006EA851070B016E00500110D8B485
:1034B60028EF23F0A8A904D0060EA26F000EA36F72
:1034C60098C0E9FF99C0EAFFEECF00F0EECF01F019
:1034D60000C0E9FF01C0EAFFEECFA9F0EECFAAF0E7
:1034E600EECFABF0EECFACF098C0E9FF99C0EAFFA3
:1034F600040EEE24006E000EEE20016E98C0E1FF71
:1035060099C0E2FF00C0E6FF01C0E6FF046A056A53
:10351600066A076AA9C000F0AAC001F0ABC002F0B3
:10352600ACC003F001EC14F0010ED8B0000E006E32
:10353600005205E0AB7F030EA713000EA813AD6B78
:10354600AE6BA9C000F0AAC001F0ABC002F0ACC0DF
:1035560003F0046A056A066A076A06EC0EF0000EB6
:10356600D8A4010E006E0052D8B48AD0ACC000F0C8
:10357600016A026A036AFF0E0016000E01167E0E2D
:10358600005E000E015A00C0ADF001C0AEF0010EA3
:10359600005E000E015A00C0ADF001C0AEF0030E91
:1035A600046E000E056EBAEC00F000C0ADF001C06E
:1035B600AEF00A0E046E000E056E1CEC15F000C08F
:1035C600ADF001C0AEF0800E0118026E800E025CF6
:1035D60002E1000E005C05E2010E0001AD5F000E87
:1035E600AE5B0001AD510008BB6F21EC0EF0A9C027
:1035F60004F0AAC005F0ABC006F0ACC007F0BCEC06
:1036060006F000C0AFF001C0B0F002C0B1F003C0D8
:10361600B2F0000E046E000E056E000E066E7F0EF2
:10362600076EAFC000F0B0C001F0B1C002F0B2C08A
:1036360003F001EC14F0010ED8B0000E006E00523B
:1036460005E0010EAD5F000EAE5B1AD0000E046EF3
:10365600000E056E200E066E820E076EAFC000F0DD
:10366600B0C001F0B1C002F0B2C003F001EC14F03A
:10367600000ED8B0010E006E005202E0AD4BAE2B2C
:10368600800E006E800EAE19005C02E1AD5100089E
:1036960003E3010EA46F02D0ADC0A4F0A8B118D008
:1036A600A8A315D0800EAE19006E7F0E005C02E155
:1036B600FC0EAD5D0BE3800EAE19006E800EA319F5
:1036C600005C02E1A251AD5D01E201D001D0EFD371
:1036D600A251A31106E0A8A304D0010EA25F000E1A
:1036E600A35BA351000802E1A251080803E2080EF9
:1036F600A46F02D0A2C0A4F0A9C000F0AAC001F035
:10370600ABC002F0ACC003F0046A056A066A076A39
:1037160006EC0EF0000ED8A4010E006E0052D8B4CE
:103726004BD1ADC0BBF021EC0EF000C004F001C0DF
:1037360005F002C006F003C007F0A9C000F0AAC059
:1037460001F0ABC002F0ACC003F090EC12F000C088
:10375600A9F001C0AAF002C0ABF003C0ACF00001B2
:10376600A4510008BB6F21EC0EF000C004F001C0AC
:1037760005F002C006F003C007F0A9C000F0AAC019
:1037860001F0ABC002F0ACC003F090EC12F000C048
:10379600B5F001C0B6F002C0B7F003C0B8F0B5C0CE
:1037A600A9F0B6C0AAF0B7C0ABF0B8C0ACF0B5C0CF
:1037B60000F0B6C001F0B7C002F0B8C003F0DFEC0D
:1037C60015F0FCEC10F000C004F001C005F002C0DA
:1037D60006F003C007F0B5C000F0B6C001F0B7C0F0
:1037E60002F0B8C003F01DEC0EF0000E046E000EE1
:1037F600056E000E066E7E0E076E01EC14F0000ECE
:10380600D8B0010E006E00521AE0A9C000F0AAC09E
:1038160001F0ABC002F0ACC003F0000E046E000E67
:10382600056E000E066E7E0E076E6FEC08F000C089
:10383600A9F001C0AAF002C0ABF003C0ACF0A9C069
:1038460000F0AAC001F0ABC002F0ACC003F0DFECA0
:1038560015F00001A451010F096E0A6A000E0A2232
:1038660009C004F00AC005F0000E0ABEFF0E066E7F
:10387600076E04360490053606360736043604907D
:103886000536063607360F0E0424F66E550E05204D
:10389600F76E000E0620F86E0900F5CF05F0090058
:1038A600F5CF06F00900F5CF07F00900F5CF08F0CF
:1038B6000850035C08E10750025C05E10650015C14
:1038C60002E10550005C1EE30001A9C000F0AAC099
:1038D60001F0ABC002F0ACC003F0CD0E046ECC0E0E
:1038E600056E4C0E066E7B0E076EBCEC06F000C035
:1038F600A9F001C0AAF002C0ABF003C0ACF0AD4B1A
:10390600AE2B5AD0A9C000F0AAC001F0ABC002F09D
:10391600ACC003F0DFEC15F0A4C004F0000E056E99
:10392600066E076E043604900536063607360436EC
:1039360004900536063607360F0E0424F66E550E2D
:103946000520F76E000E0620F86E0900F5CF05F08B
:103956000900F5CF06F00900F5CF07F00900F5CF0D
:1039660008F00850035C08E10750025C05E10650C8
:10397600015C02E10550005C1FE20001A9C000F0F5
:10398600AAC001F0ABC002F0ACC003F0000E046E9A
:10399600000E056E200E066E820E076EBCEC06F05B
:1039A60000C0A9F001C0AAF002C0ABF003C0ACF0A1
:1039B600010EAD5F000EAE5B0001A8A393D0A8B7C1
:1039C60091D0800E000A006E800EA319005C02E101
:1039D600A2510A0804E20A0EA26F000EA36FA9C044
:1039E60000F0AAC001F0ABC002F0ACC003F0DFECFF
:1039F60015F000C0AFF001C0B0F002C0B1F003C0D6
:103A0600B2F0AF51B011B111B21142E00A0E046E1C
:103A1600000E056E066E076EAFC000F0B0C001F076
:103A2600B1C002F0B2C003F0F8EC0BF008C000F031
:103A360009C001F00AC002F00BC003F0000E046ECC
:103A4600031808E10450021805E10450011802E1C8
:103A56000050000A1DE1010EA25F000EA35B0A0ED4
:103A6600046E000E056E066E076EAFC000F0B0C0A5
:103A760001F0B1C002F0B2C003F0F8EC0BF000C0E8
:103A8600AFF001C0B0F002C0B1F003C0B2F0B9D7D8
:103A9600800EA319006E800E005C02E1A451A25DA7
:103AA60021E2A251A45DBB6F21EC0EF000C004F030
:103AB60001C005F002C006F003C007F0A9C000F07F
:103AC600AAC001F0ABC002F0ACC003F090EC12F05B
:103AD60000C0A9F001C0AAF002C0ABF003C0ACF070
:103AE600A2C0A4F0050E0001A225006E000EA321BF
:103AF600016E0050A55F0150A65BA251A31103E120
:103B0600A8B701D004D0010EA55F000EA65B030E78
:103B1600A715006EA8C001F0000E01160050011096
:103B260004E0010EA55F000EA65BA7A539D0A7A3EA
:103B360012D0A7A103D02D0E9A6F02D02B0E9A6F2A
:103B460093C0E1FF94C0E2FF9AC0E6FF934B942B2B
:103B5600B34BB42B0CD0A7A10AD093C0E1FF94C0FD
:103B6600E2FF200EE66E934B942BB34BB42B800EE4
:103B7600006E800EA619005C02E1A55100080FE256
:103B860093C0E1FF94C0E2FF300EE66E934B942B98
:103B9600B34BB42B010EA55F000EA65BE8D73AD057
:103BA600A7B718D0800E006E800EA619005C02E141
:103BB600A55100080FE293C0E1FF94C0E2FF200E7A
:103BC600E66E934B942BB34BB42B010EA55F000E00
:103BD600A65BE8D7A7A312D0A7A103D02D0E9B6F93
:103BE60002D02B0E9B6F93C0E1FF94C0E2FF9BC0F7
:103BF600E6FF934B942BB34BB42B0CD0A7A10AD062
:103C060093C0E1FF94C0E2FF200EE66E934B942B27
:103C1600B34BB42BA9C000F0AAC001F0ABC002F0B0
:103C2600ACC003F0DFEC15F000C0AFF001C0B0F09F
:103C360002C0B1F003C0B2F0A4C000F0000E016EE5
:103C4600026E036E003600900136023603360036E9
:103C560000900136023603360F0E0024F66E550E1E
:103C66000120F76E000E0220F86E0900F5CF04F071
:103C76000900F5CF05F00900F5CF06F00900F5CFEC
:103C860007F0AFC000F0B0C001F0B1C002F0B2C0A2
:103C960003F0F8EC0BF0300E002693C0E1FF94C061
:103CA600E2FF00C0E6FF934B942BB34BB42BA2511B
:103CB600A31103E1A8B701D06FD093C0E1FF94C070
:103CC600E2FF2E0EE66E934B942BB34BB42BA4510E
:103CD600A25F000EA35BA4534DE0A407A4C000F0AE
:103CE600000E016E026E036E00360090013602363B
:103CF6000336003600900136023603360F0E0024D6
:103D0600F66E550E0120F76E000E0220F86E0900C1
:103D1600F5CF04F00900F5CF05F00900F5CF06F060
:103D26000900F5CF07F0AFC000F0B0C001F0B1C098
:103D360002F0B2C003F0F8EC0BF00A0E046E000EAF
:103D4600056E066E076EF8EC0BF008C000F009C0B1
:103D560001F00AC002F00BC003F0300E002693C03B
:103D6600E1FF94C0E2FF00C0E6FF934B942BB34BF8
:103D7600B42BB1D7A251A3110FE093C0E1FF94C0B9
:103D8600E2FF300EE66E934B942BB34BB42B010E31
:103D9600A25F000EA35BEED7A7AB0BD093C0E1FFEB
:103DA60094C0E2FF450EE66E934B942BB34BB42BB7
:103DB6000AD093C0E1FF94C0E2FF650EE66E934B16
:103DC600942BB34BB42B800EAE19006E800E005CA4
:103DD60002E1000EAD5D11E2AD510008AD6FAE51CE
:103DE600000EAE5793C0E1FF94C0E2FF2D0EE66EC3
:103DF600934B942BB34BB42B0AD093C0E1FF94C0E2
:103E0600E2FF2B0EE66E934B942BB34BB42B0A0EAC
:103E1600046E000E056EADC000F0AEC001F01CECE5
:103E260015F0300E002693C0E1FF94C0E2FF00C0FB
:103E3600E6FF0001934B942BB34BB42B0A0E046E92
:103E4600000E056EADC000F0AEC001F01CEC15F022
:103E560008C000F009C001F0300E002693C0E1FF53
:103E660094C0E2FF00C0E6FF0001934B942BB34BD6
:103E7600B42BA7A71AD0800E006E800EA619005C80
:103E860002E1A551000811E293C0E1FF94C0E2FFF0
:103E9600200EE66E934B942BB34BB42B010EA55F0D
:103EA600000EA65BA551A611EFE178EF17F0A8A3C7
:103EB600F3D0800EAE19006E800E005C02E1000E9B
:103EC600AD5D0AE2010EAD5D006E000EAE59016EEB
:103ED6000050A25F0150A35BA9C000F0AAC001F088
:103EE600ABC002F0ACC003F0DFEC15F000C0AFF0E1
:103EF60001C0B0F002C0B1F003C0B2F0010EA46F71
:103F0600A4510A0A34E0A4C000F0000E016E026E4D
:103F1600036E0036009001360236033600360090F6
:103F26000136023603360F0E0024F66E550E0120BA
:103F3600F76E000E0220F86E0900F5CF01F00900B9
:103F4600F5CF02F00900F5CF03F00900F5CF04F034
:103F56000450B25D08E10350B15D05E10250B05D69
:103F660002E10150AF5D01E202D0A42BC9D7A451F2
:103F7600A25DB96F000EA359BA6FB9C0A2F0BAC05C
:103F8600A3F0AFC000F0B0C001F0B1C002F0B2C003
:103F960003F0FCEC10F000C004F001C005F002C014
:103FA60006F003C007F0A9C000F0AAC001F0ABC03C
:103FB60002F0ACC003F01DEC0EF000C0B5F001C07D
:103FC600B6F002C0B7F003C0B8F0B9C0BBF021EC40
:103FD6000EF0B5C004F0B6C005F0B7C006F0B8C024
:103FE60007F0BCEC06F0000E046E000E056E000E27
:103FF600066E7E0E076E6FEC08F0DFEC15F000C063
:10400600AFF001C0B0F002C0B1F003C0B2F0A251EF
:10401600A31142E00A0E046E000E056E066E076ED0
:10402600AFC000F0B0C001F0B1C002F0B2C003F002
:10403600F8EC0BF008C000F009C001F00AC002F06D
:104046000BC003F0000E046E031808E104500218BA
:1040560005E10450011802E10050000A1DE10A0EB4
:10406600046E000E056E066E076EAFC000F0B0C09F
:1040760001F0B1C002F0B2C003F0F8EC0BF000C0E2
:10408600AFF001C0B0F002C0B1F003C0B2F0010E53
:10409600A25F000EA35BBBD7800E006E800EA31935
:1040A600005C02E1A2510C0816E3A2C0BBF00FECC3
:1040B60011F0A9C004F0AAC005F0ABC006F0ACC070
:1040C60007F06FEC08F000C0A9F001C0AAF002C02A
:1040D600ABF003C0ACF0A9C000F0AAC001F0ABC0C1
:1040E60002F0ACC003F0046A056A066A076A06ECC9
:1040F6000EF0000ED8A4010E006E0052D8B477D090
:10410600A9C000F0AAC001F0ABC002F0ACC003F039
:10411600DFEC15F0000E046E031808E104500218D7
:1041260005E10450011802E10050000A60E1800E2A
:10413600006E800EAE19005C02E1AD51010857E237
:10414600ADC0BBF021EC0EF000C004F001C005F0DC
:1041560002C006F003C007F0A9C000F0AAC001F033
:10416600ABC002F0ACC003F090EC12F05F0E046E30
:10417600700E056E090E066E810E076E01EC14F0C8
:10418600010ED8B0000E006E005206E0090E0001C6
:10419600AD5F000EAE5B05D00001080EAD5F000EF0
:1041A600AE5BADC0BBF021EC0EF000C004F001C068
:1041B60005F002C006F003C007F0A9C000F0AAC0CF
:1041C60001F0ABC002F0ACC003F090EC12F0DFECF3
:1041D60015F000C0AFF001C0B0F002C0B1F003C0EE
:1041E600B2F00001A96BAA6BAB6BAC6B38D0A9C05F
:1041F60000F0AAC001F0ABC002F0ACC003F0DFECE7
:1042060015F000C0AFF001C0B0F002C0B1F003C0BD
:10421600B2F0AFC000F0B0C001F0B1C002F0B2C061
:1042260003F0FCEC10F000C004F001C005F002C081
:1042360006F003C007F0A9C000F0AAC001F0ABC0A9
:1042460002F0ACC003F01DEC0EF000C0A9F001C0F6
:10425600AAF002C0ABF003C0ACF0AD6BAE6B010EC2
:10426600A46FA4510A0A34E0A4C000F0000E016E47
:10427600026E036E003600900136023603360036B3
:1042860000900136023603360F0E0024F66E550EE8
:104296000120F76E000E0220F86E0900F5CF01F03E
:1042A6000900F5CF02F00900F5CF03F00900F5CFBC
:1042B60004F00450B25D08E10350B15D05E102501F
:1042C600B05D02E10150AF5D01E202D0A42BC9D777
:1042D600A451A225006E000EA321016EAD51002649
:1042E600AE5101220050A55F0150A65BA8B704D0CD
:1042F600A251A31101E104D0010EA55F000EA65B39
:10430600030EA715006EA8C001F0000E011600509E
:10431600011004E0010EA55F000EA65BA7A539D02B
:10432600A7A312D0A7A103D02D0E9C6F02D02B0EEF
:104336009C6F93C0E1FF94C0E2FF9CC0E6FF934BE5
:10434600942BB34BB42B0CD0A7A10AD093C0E1FF9A
:1043560094C0E2FF200EE66E934B942BB34BB42B26
:10436600800E006E800EA619005C02E1A5510008C1
:104376000FE293C0E1FF94C0E2FF300EE66E934B6E
:10438600942BB34BB42B010EA55F000EA65BE8D7AA
:104396003AD0A7B718D0800E006E800EA619005C22
:1043A60002E1A55100080FE293C0E1FF94C0E2FFCD
:1043B600200EE66E934B942BB34BB42B010EA55FE8
:1043C600000EA65BE8D7A7A312D0A7A103D02D0E97
:1043D6009D6F02D02B0E9D6F93C0E1FF94C0E2FF4C
:1043E6009DC0E6FF934B942BB34BB42B0CD0A7A1E7
:1043F6000AD093C0E1FF94C0E2FF200EE66E934B15
:10440600942BB34BB42BA4C000F0A40700524CE08D
:10441600A4C000F0000E016E026E036E003600901E
:104426000136023603360036009001360236033670
:104436000F0E0024F66E550E0120F76E000E0220B8
:10444600F86E0900F5CF04F00900F5CF05F0090074
:10445600F5CF06F00900F5CF07F0AFC000F0B0C009
:1044660001F0B1C002F0B2C003F0F8EC0BF00A0E96
:10447600046E000E056E066E076EF8EC0BF008C0B3
:1044860000F009C001F00AC002F00BC003F0300EC4
:10449600002693C0E1FF94C0E2FF00C0E6FF934B05
:1044A600942BB34BB42BAFD7800E006E800EAE1993
:1044B600005C02E1AD5100080FE293C0E1FF94C039
:1044C600E2FF300EE66E934B942BB34BB42B010EEA
:1044D600AD5F000EAE5BE8D7800E000A006E800E60
:1044E600A319005C02E1A251080803E2080EA46FBA
:1044F60002D0A2C0A4F0A451A25F000EA35BA453F5
:1045060003E1A8B701D00AD093C0E1FF94C0E2FF4F
:104516002E0EE66E934B942BB34BB42BA4C0BBF07C
:1045260021EC0EF0A9C004F0AAC005F0ABC006F05D
:10453600ACC007F0BCEC06F06EEC0DF000C0AFF0BE
:1045460001C0B0F002C0B1F003C0B2F0A4534DE018
:10455600A407A4C000F0000E016E026E036E0036C2
:1045660000900136023603360036009001360236D8
:1045760003360F0E0024F66E550E0120F76E000E60
:104586000220F86E0900F5CF04F00900F5CF05F01A
:104596000900F5CF06F00900F5CF07F0AFC000F02F
:1045A600B0C001F0B1C002F0B2C003F0F8EC0BF0FD
:1045B6000A0E046E000E056E066E076EF8EC0BF022
:1045C60008C000F009C001F00AC002F00BC003F0F9
:1045D600300E002693C0E1FF94C0E2FF00C0E6FF64
:1045E600934B942BB34BB42BB1D7A251A3110FE02D
:1045F60093C0E1FF94C0E2FF300EE66E934B942B1E
:10460600B34BB42B010EA25F000EA35BEED7A7A798
:104616001AD0800E006E800EA619005C02E1A5512C
:10462600000811E293C0E1FF94C0E2FF200EE66E9F
:10463600934B942BB34BB42B010EA55F000EA65BD8
:10464600A551A611EFE178EF17F0C00EA715016E80
:10465600A8C002F0000E0216000E021802E1000EBB
:104666000118D8A480D0A7A927D098C0E9FF99C07F
:10467600EAFFEECF00F0EECF01F000C0E9FF01C087
:10468600EAFFEECFAFF0EECFB0F0EECFB1F0EECF67
:10469600B2F098C0E9FF99C0EAFF040EEE24006E5E
:1046A600000EEE20016E98C0E1FF99C0E2FF00C047
:1046B600E6FF01C0E6FF2FD098C0E9FF99C0EAFFE8
:1046C600EECF00F0EECF01F000C0E9FF01C0EAFF37
:1046D600EECF00F0EECF01F0000E01BEFF0E026E2F
:1046E600036E00C0AFF001C0B0F002C0B1F003C06D
:1046F600B2F098C0E9FF99C0EAFF020EEE24006E00
:10470600000EEE20016E98C0E1FF99C0E2FF00C0E6
:10471600E6FF01C0E6FF800EB219006E800E005C57
:1047260008E1000EB15D05E1000EB05D02E1000E8C
:10473600AF5D18E2030EA713000EA813006A016A04
:10474600026A036AAF51005EB051015AB151025A72
:10475600B251035A00C0AFF001C0B0F002C0B1F0D0
:1047660003C0B2F04ED0A7A927D098C0E9FF99C0E0
:10477600EAFFEECF00F0EECF01F000C0E9FF01C086
:10478600EAFFEECFAFF0EECFB0F0EECFB1F0EECF66
:10479600B2F098C0E9FF99C0EAFF040EEE24006E5D
:1047A600000EEE20016E98C0E1FF99C0E2FF00C046
:1047B600E6FF01C0E6FF25D098C0E9FF99C0EAFFF1
:1047C600EECF00F0EECF01F000C0E9FF01C0EAFF36
:1047D600EECFAFF0EECFB0F0000EB16FB26F98C073
:1047E600E9FF99C0EAFF020EEE24006E000EEE20ED
:1047F600016E98C0E1FF99C0E2FF00C0E6FF01C06C
:10480600E6FF000EA31902E1000EA2190FE1000E49
:10481600006EB21908E10050B11905E10050B01957
:1048260002E1AF51000A02E1A24BA32BC00EA7156D
:10483600006E00C005F0AED0010EA46FA4510A0AA6
:1048460034E0A4C000F0000E016E026E036E003666
:1048560000900136023603360036009001360236E5
:1048660003360F0E0024F66E550E0120F76E000E6D
:104876000220F86E0900F5CF01F00900F5CF02F02D
:104886000900F5CF03F00900F5CF04F00450B25D3E
:1048960008E10350B15D05E10250B05D02E101504F
:1048A600AF5D01E202D0A42BC9D782D0010EA46F5E
:1048B600A451080A34E0A4C000F0000E016E026E96
:1048C600036E00360090013602360336003600903D
:1048D600013602360336C10E0024F66E550E01204F
:1048E600F76E000E0220F86E0900F5CF01F0090000
:1048F600F5CF02F00900F5CF03F00900F5CF04F07B
:104906000450B25D08E10350B15D05E10250B05DAF
:1049160002E10150AF5D01E202D0A42BC9D748D015
:10492600010EA46FA4510C0A34E0A4C000F0000EDE
:10493600016E026E036E00360090013602360336B3
:1049460000360090013602360336B60E0024F66EA7
:10495600540E0120F76E000E0220F86E0900F5CF06
:1049660001F00900F5CF02F00900F5CF03F00900C8
:10497600F5CF04F00450B25D08E10350B15D05E1E6
:104986000250B05D02E10150AF5D01E202D0A42BFE
:10499600C9D70ED00550000AD8B44ED70550C00A64
:1049A600D8B44AD70550800A81E00550400AB8E0DD
:1049B600800E006E800EA319005C02E1A251A45D78
:1049C60003E2A2C0A4F00DD0800EA319006E800EE3
:1049D600005C02E1A451A25D04E2A4C0A2F0000EB4
:1049E600A36FA551A6110EE0030EA715006EA8C071
:1049F60001F0000E01160050011004E0010EA55F43
:104A0600000EA65B800EA319006E800EA619005C30
:104A160002E1A551A25D05E2A251A55FA351A65BE5
:104A260002D0A56BA66BC40EA715016EA851080B84
:104A3600026E0250080A02E1400E011808E1A55173
:104A4600A61104E0010EA55F000EA65B1CD0C00EE9
:104A5600A715016EA851080B026E0250080A02E162
:104A6600800E011810E1800E006E800EA619005C03
:104A760002E1A551020805E2020EA55F000EA65B43
:104A860002D0A56BA66BA7A55DD0A7A312D0A7A140
:104A960003D02D0E9E6F02D02B0E9E6F93C0E1FFAA
:104AA60094C0E2FF9EC0E6FF934B942BB34BB42B0E
:104AB60034D0A7A10BD093C0E1FF94C0E2FF200E33
:104AC600E66E934B942BB34BB42B27D0C00EA71591
:104AD600016EA851080B026E0250080A02E1800E10
:104AE60001181BE193C0E1FF94C0E2FF300EE66EB1
:104AF600934B942BB34BB42BA7AB03D0580E9F6F9D
:104B060002D0780E9F6F93C0E1FF94C0E2FF9FC072
:104B1600E6FF934B942BB34BB42BA551A61111E092
:104B260093C0E1FF94C0E2FF300EE66E934B942BE8
:104B3600B34BB42B010EA55F000EA65BA551A611C3
:104B4600EFE174D0A551A61113E0A7B711D093C019
:104B5600E1FF94C0E2FF200EE66E934B942BB34B1D
:104B6600B42B010EA55F000EA65BA551A611EFE1C1
:104B7600A7A312D0A7A103D02D0EA06F02D02B0E93
:104B8600A06F93C0E1FF94C0E2FFA0C0E6FF934B85
:104B9600942BB34BB42B0CD0A7A10AD093C0E1FF42
:104BA60094C0E2FF200EE66E934B942BB34BB42BCE
:104BB600C00EA715016EA851080B026E0250080A16
:104BC60002E1400E01180BE193C0E1FF94C0E2FF41
:104BD600300EE66E934B942BB34BB42B27D0C00EFE
:104BE600A715016EA851080B026E0250080A02E1D1
:104BF600800E01181BE193C0E1FF94C0E2FF300E66
:104C0600E66E934B942BB34BB42BA7AB03D0580E45
:104C1600A16F02D0780EA16F93C0E1FF94C0E2FFAE
:104C2600A1C0E6FF934B942BB34BB42B800E006EC2
:104C3600800EA319005C02E1A251A45D0BE293C0B1
:104C4600E1FF94C0E2FF300EE66E934B942BB34B1C
:104C5600B42BECD7A2C000F0A3C001F0010EA25FF6
:104C6600000EA35B00500110D8B42AD1C00EA715C0
:104C7600006E00C0B5F00AD1A2C000F0A3C001F0DA
:104C8600000EA3BFFF0E026E036E003600900136C3
:104C960002360336003600900136023603360F0E12
:104CA6000024F66E550E0120F76E000E0220F86EF7
:104CB6000900F5CF04F00900F5CF05F00900F5CF9E
:104CC60006F00900F5CF07F0AFC000F0B0C001F064
:104CD600B1C002F0B2C003F0F8EC0BF00A0E046E9D
:104CE600000E056E066E076EF8EC0BF008C000F0BD
:104CF60009C001F00AC002F00BC003F0300E002418
:104D0600A46FD3D0A7AB45D0A2C000F0A3C001F0DA
:104D1600000EA3BFFF0E026E036E00360090013632
:104D26000236033600360090013602360336C10ECF
:104D36000024F66E550E0120F76E000E0220F86E66
:104D46000900F5CF04F00900F5CF05F00900F5CF0D
:104D560006F00900F5CF07F0AFC000F0B0C001F0D3
:104D6600B1C002F0B2C003F0F8EC0BF00F0E001663
:104D7600000E011602160316F30E0024F66E550EEB
:104D86000120F76E000E0220F86E0900F5CFA4F0A0
:104D960044D0A2C000F0A3C001F0000EA3BFFF0ED6
:104DA600026E036E00360090013602360336003678
:104DB6000090013602360336C10E0024F66E550EFB
:104DC6000120F76E000E0220F86E0900F5CF04F000
:104DD6000900F5CF05F00900F5CF06F00900F5CF7B
:104DE60007F0AFC000F0B0C001F0B1C002F0B2C031
:104DF60003F0F8EC0BF00F0E0016000E011602166B
:104E06000316040E0024F66E560E0120F76E000EF1
:104E16000220F86E0900F5CFA4F047D0A2C000F03A
:104E2600A3C001F0000EA3BFFF0E026E036E003694
:104E360000900136023603360036009001360236FF
:104E46000336B60E0024F66E540E0120F76E000EE1
:104E56000220F86E0900F5CF04F00900F5CF05F041
:104E66000900F5CF06F00900F5CF07F0AFC000F056
:104E7600B0C001F0B1C002F0B2C003F0F8EC0BF024
:104E8600070E0014A46F300EA4270FD0B551000AE8
:104E9600D8B4F2D6B551C00AD8B4EED6B551800A08
:104EA600D8B430D7B551400AB9E093C0E1FF94C0F9
:104EB600E2FFA4C0E6FF934B942BB34BB42BCAD6A8
:104EC600A7A71AD0800E006E800EA619005C02E11C
:104ED600A551000811E293C0E1FF94C0E2FF200E45
:104EE600E66E934B942BB34BB42B010EA55F000ECD
:104EF600A65BA551A611EFE178EF17F0B3C000F05D
:064F0600B4C001F012002E
:104F0C0082C093F083C094F084C095F0010E000130
:084F1C00966F1BEC17F0120068
:104F2400870E0001916F000E926F82C093F083C0D0
:104F340094F084C095F085C096F086C097F0910EE9
:104F4400986F000E996F73EC17F000C08FF001C0DA
:104F540090F000508225E16E01508321E26EE66AF2
:0A4F64008FC000F090C001F01200B1
:104F6E004650010A07E16DBA05D0686A6980698802
:104F7E00020E466E68A406D069A404D0FB0E681615
:104F8E0090EC07F06DA203D04FEC07F0DDD068A0D7
:104F9E0019D069A017D051EC07F0040E466E200E02
:104FAE000401026F040E036F080E016F000E001550
:104FBE00006E00C000F48C0E0011006E00C000F4F4
:104FCE00FE0E681668A806D069A804D00BEC08F08F
:104FDE00EF0E681668AC04D069AC02D0BF0E68162E
:104FEE0068AA04D069AA02D098EC07F068A202D091
:104FFE0069B26A6A040E465C03E24FEC07F0A4D075
:10500E0069A6A0D00001C26B040EC25DD8B09AD0C2
:10501E0068A694D06CCF69F0F70E6816780E6915F5
:10502E00016E0150000AD8A488D0FD0E6915016EDC
:10503E00026AFF0E0216000E021802E1000E01189F
:10504E006DE17E0E6915016E01C003F00332039E01
:10505E0003C000F0000E016E0036009001360036DF
:10506E0000900136000E0024026E040E0120036E25
:10507E0002C044F003C045F002C06FF003C070F0F0
:10508E00040E6F19006E00C06FF002C0E9FF03C07E
:10509E00EAFFEECF00F000C001F03C0E0116013227
:1050AE00019E0132019E01500D0A35E1020E44248B
:1050BE00E96E000E4520EA6EEECF01F0EECF02F063
:1050CE000250040A02E1280E011822E1020E4424C5
:1050DE00E16E000E4520E26E200EE66E040EE66EC8
:1050EE00C16B080EC15D14E2200EE16E040EE26E7D
:1050FE00C151E126D8B0E22A280EE96E040EEA6EFE
:10510E00C151E926D8B0EA2AEECFE6FFC12BE9D786
:10511E00E3EC0AF002D03CEC08F00ED0FD0E69155F
:10512E00016E026AFF0E0216000E021802E1040E54
:10513E00011802E1B9EC07F000D001D003D0000154
:0A514E00C22B62D74FEC07F01200ED
:105158000050086E0150006E016A026A036A0B6A09
:105168000C6A960E036E0A6A00C001F008C000F0CF
:0A517800086A026ADFEC16F012006C
:10518200C26A2F1C006E0050C116070EC012C08EDC
:1051920082C000F000360090003600900050C2122B
:1051A200C280D8EC16F0C282C2A201D0FDD7C4CF11
:1051B20001F0006AC3500012000E0112C2901200E8
:1051C20086C000F000018607005228E082C0E9FF95
:1051D20083C0EAFFEE50000A0CE082C0E9FF83C000
:1051E200EAFF84C0D9FF85C0DAFFEE50DE1801E184
:1051F2000FD082C0E9FF83C0EAFF84C0D9FF85C017
:10520200DAFFDE50EE5C006E016A000E015A08D031
:105212000001824B832B844B852BD2D7006A016A13
:02522200120078
:105224000900F5CFE6FF0006FBE10106F9E11200F3
:105234007BEC16F000C073F0010E5F6E82C037F095
:1052440083C038F084C06AF085C06BF051EC07F07D
:10525400010E016E0150010A02E191EC16F01200F8
:1052640037C093F038C094F0400E0001956F010EE2
:08527400966FA0EC16F0120089
:10527C0014EC2BF00D0EC16E070EB412000E0001D3
:10528C00826F050E836F400E846F050E856FCCDF29
:10529C00936AFF0E926EC10E94120C0EBD6E0C0E24
:1052AC00BA6EBE6ABB6A060ECA6EC80ECB6E200EF4
:1052BC00D56E820ECD6E900EB16EF90E946ECCDF63
:1052CC000052D8B49CD0000E826F050E836F2B0E4B
:1052DC00846F000E856F030E866F6DDF000E011854
:1052EC0002E1000E001849E10001826B44DF00C0AE
:1052FC0080F001C081F080C029F081C02AF080C00C
:10530C0000F081C001F022DF000E046E000E056E6D
:10531C00200E066E810E076EBCEC06F0000E046EBD
:10532C00000E056E000E066E890E076E90EC12F0E4
:10533C0000C04EF001C04FF002C050F003C051F05D
:10534C00400E0001826F050E836F370E846F550E71
:10535C00856F000E866F80C087F081C088F080C09A
:10536C0089F081C08AF000C08BF001C08CF002C0C3
:10537C008DF003C08EF0D0DD36D019D001C581FF81
:10538C0032D0D59ED76AD66A2ED0CD90CF6ACE6A4F
:10539C002AD0D58E28D0CD8026D0D59E24D0CD90A5
:1053AC0022D002C5BEFF1FD002C5BBFF1CD0050119
:1053BC000051010AE3E00051020AE3E00051030A44
:1053CC00E4E00051040AE5E00051050AE4E0005174
:1053DC00060AE3E00051070AE2E00051080AE1E0A6
:1053EC000051090AE1E000C540F501C541F5400E48
:1053FC000001826F050E836F400E846F81DD000EFD
:10540C002A5C02E1320E295C04E2010E00017E6F7F
:10541C0002D000017E6B7EB102D08A9201D08A82CA
:10542C002A50030802E12950B60803E2010E7F6FEF
:10543C0001D07F6B7FB102D08A9401D08A843FD790
:02544C00FFD788
:1056280010EE29F00E0E006E010E016E150EF66ECC
:0E563800560EF76E000EF86E12EC29F01200FE
:10544E000000007FCDCC4C7B0AD723786F120375FA
:10545E0017B75171ACC5276EBD37066B95BF566732
:10546E0077CC2B645F700961FFE65B5D08E53C3C21
:04547E006042221B4B
:105482000000007F000020820000488500007A882A
:1054920000401C8C0050438F002474928096189612
:1054A20020BC3E99286B6E9CF90215A0EC782DC1A8
:0454B200CAF249E20F
:1054B600010000000800000040000000000200009B
:1054C6000010000000800000000004000000200022
:1054D600000000010000000800000040000000007D
:1054E60009022900010100803209040000020300BC
:1054F6000000092101010001222100070581034066
:095506000001070501034000014A
:10550F00010000000A00000064000000E803000032
:10551F0010270000A086010040420F0080969800DF
:08552F0000E1F50500CA9A3BFA
:105537004144433D20252035752020202025303447
:10554700582020736F69742025322E326620566FDB
:075557006C74730D0A2000C3
:10555E0022034D0069006B0072006F0065006C0045
:10556E0065006B00740072006F006E0069006B00C6
:02557E006100CA
:105580000600FF0901A10119012940150026FF00AD
:1055900075089540810219012940750895409102CE
:0155A000C04A
:1055A10020035500530042002000480049004400F8
:1055B10020004C00690062007200610072007900F5
:1055C10001000000100000000001000000100000B8
:1055D10000000100000010000000000100000010A8
:1055E1001201000200000008BC2D010000010102AF
:0255F1000001B7
:1055F3003031323334353637383941424344454606
:0156030000A6
:105604003031323334353637383961626364656634
:015614000095
:02561500000093
:0456170041444300C7
:01561B00305E
:07561C00286E756C6C29007B
:04562300040309046F
:020000040030CA
:0E000000210E3F1EFF0381FF0FC00FE00F40D7
:00000001FF
